:0400000007EF00F016
:100008005E8209ED00F033EF13F00600F3CF54F0F1
:10001800F4CF55F09EA013EF00F015EF00F03BEF82
:1000280000F00001D4515C5C5D50800A536ED551DC
:10003800800A5358D8B023EF00F025EF00F02EEFD8
:1000480000F08CA02AEF00F02DEF00F08C802EEF4E
:1000580000F08C90B6C0CEFFB7C0CFFF8CA037EFB2
:1000680000F039EF00F03BEF00F05C4A5D2AA1A2F6
:1000780040EF00F042EF00F068EF00F00001D251CD
:100088005A5C5B50800A536ED351800A5358D8B0DB
:1000980050EF00F052EF00F05BEF00F08CA257EF4A
:1000A80000F05AEF00F08C825BEF00F08C92B4C045
:1000B800B2FFB5C0B3FF8CA264EF00F066EF00F0AA
:1000C80068EF00F05A4A5B2AF2A46DEF00F06FEF78
:1000D80000F09CEF02F00001D005D111D8A477EF11
:1000E80000F079EF00F07DEF00F0564A572A96EFBE
:1000F80000F058045910D8A484EF00F086EF00F0FF
:100108008BEF00F05606D8A0570696EF00F0B20520
:10011800B311D8A492EF00F094EF00F096EF00F03E
:10012800B04BB12B57BEA1EF00F0575008E1560471
:10013800D8A0A1EF00F0A3EF00F011EF02F0D00576
:10014800D111D8B4AAEF00F0ACEF00F0B5EF00F091
:1001580058045910D8A4B3EF00F0B5EF00F011EF30
:1001680002F0CD90B190C8C013F0C9C014F0CAC055
:1001780015F0CBC016F056C001F057C002F0000EC3
:1001880002BEFF0E036E046E010E0BEC11F001C0EF
:100198000FF002C010F003C011F004C012F079ECA7
:1001A80009F00FC028F010C029F011C02AF012C0C1
:1001B8002BF0000E2C6E000E2D6EA00E2E6E410E32
:1001C8002F6E5CEC0DF028C0BCF029C0BDF02AC031
:1001D800BEF02BC0BFF0C4C013F0C5C014F0C6C039
:1001E80015F0C7C016F056C001F057C002F0000E57
:1001F80002BEFF0E036E046E010E0BEC11F001C07F
:100208000FF002C010F003C011F004C012F079EC36
:1002180009F00FC028F010C029F011C02AF012C050
:100228002BF0000E2C6E000E2D6EA00E2E6E410EC1
:100238002F6E5CEC0DF028C0ACF029C0ADF02AC0E0
:10024800AEF02BC0AFF0000E286E000E296E800EA7
:100258002A6E3F0E2B6E000E136E000E146E000EEB
:10026800156E400E166EBCC00FF0BDC010F0BEC0BB
:1002780011F0BFC012F079EC09F00FC02CF010C0DB
:100288002DF011C02EF012C02FF05CEC0DF028C03C
:10029800A8F029C0A9F02AC0AAF02BC0ABF0000E24
:1002A800286E000E296E800E2A6E3F0E2B6E000EF1
:1002B800136E000E146E000E156E400E166EBCC046
:1002C8000FF0BDC010F0BEC011F0BFC012F079EC45
:1002D80009F00FC02CF010C02DF011C02EF012C084
:1002E8002FF05CEC0DF028C0A4F029C0A5F02AC0BE
:1002F800A6F02BC0A7F0000E2C6E000E2D6E800EFF
:100308002E6E3F0E2F6E000E136E240E146E740E9A
:10031800156E480E166EA8C00FF0A9C010F0AAC03E
:1003280011F0ABC012F079EC09F00FC028F010C042
:1003380029F011C02AF012C02BF05CEC0DF028C097
:1003480045F029C046F02AC047F02BC048F0000EFF
:10035800416E000E426E800E436E470E446E10ECE6
:1003680013F041C049F042C04AF043C04BF044C0CA
:100378004CF069EC12F049C0B6F04AC0B7F0000E74
:100388002C6E000E2D6E800E2E6E3F0E2F6E000E00
:10039800136E240E146E740E156E480E166EA4C0DD
:1003A8000FF0A5C010F0A6C011F0A7C012F079ECAC
:1003B80009F00FC028F010C029F011C02AF012C0AF
:1003C8002BF05CEC0DF028C045F029C046F02AC09F
:1003D80047F02BC048F0000E416E000E426E800EB2
:1003E800436E470E446E10EC13F041C049F042C012
:1003F8004AF043C04BF044C04CF069EC12F049C0DD
:10040800B4F04AC0B5F0B6C0CEFFB7C0CFFFB4C095
:10041800B2FFB5C0B3FFCD80B18057BE1DEF02F06B
:10042800575009E1140E565CD8A01DEF02F01FEFDB
:1004380002F031EF02F00001D005D111D8A427EF66
:1004480002F029EF02F031EF02F0000ED16F000E3A
:10045800D06F000EB36F010EB26F0001B1BF3EEF57
:1004680002F0B15109E1140EB05DD8A03EEF02F0E0
:1004780040EF02F055EF02F0B205B311D8A447EFF0
:1004880002F049EF02F055EF02F0000EB36F000ED4
:10049800B26F000EB16F000EB06F000E596E010EF4
:1004A800586E57BE62EF02F0575006E15604D8B0B6
:1004B80060EF02F062EF02F09CEF02F0580459106E
:1004C800D8A469EF02F06BEF02F09CEF02F0D45170
:1004D8005C5C5D50800A536ED551800A5358D8A091
:1004E80078EF02F07AEF02F09CEF02F0D2515A5CFA
:1004F8005B50800A536ED351800A5358D8A087EFB7
:1005080002F089EF02F09CEF02F0000E5D6E000E23
:100518005C6E000E5B6E000E5A6E000E576E000E7B
:10052800566E000E596E000E586ECD90B190D59E45
:1005380055C0F4FF54C0F3FF5E92110000016351EF
:10054800800B6C6F635163256E6F62AFAEEF02F084
:10055800B0EF02F0B1EF02F06E816E51D8B4B7EF90
:1005680002F0B9EF02F0CEEF02F06E29D8A4BFEF87
:1005780002F0C1EF02F0C9EF02F0000E606F000E4A
:10058800616F000E626F000E636F628F000E636F03
:10059800D6EF02F0000E606F000E616F000E626F02
:1005A800000E636F6751800B6D6F6C516D19D8B475
:1005B800E0EF02F0E2EF02F0E3EF02F06C8D67513A
:1005C80067256D6F66AFEBEF02F0EDEF02F0EEEF2F
:1005D80002F06D816D51D8B4F4EF02F0F6EF02F03D
:1005E8000BEF03F06D29D8A4FCEF02F0FEEF02F048
:1005F80006EF03F0000E646F000E656F000E666F65
:10060800000E676F668F000E676F13EF03F0000E22
:10061800646F000E656F000E666F000E676F6E5197
:100628006D5DD8B01AEF03F01CEF03F043EF03F051
:100638006CAD21EF03F023EF03F025EF03F0800EFC
:100648006C1B6EC06FF06DC06EF06FC06DF060C057
:100658006FF064C060F06FC064F061C06FF065C097
:1006680061F06FC065F062C06FF066C062F06FC085
:1006780066F063C06FF067C063F06FC067F0000E8C
:100688006F6F6E516DC068F0696B685F000E695BD3
:1006980069BF58EF03F0695109E11A0E685DD8A0E7
:1006A80058EF03F05AEF03F091EF03F06051611136
:1006B80062116311D8A463EF03F066EF03F0010E33
:1006C80067EF03F0000E6F6F000E606F000E616F32
:1006D800000E626F000E636F6DC06EF09AEF03F04C
:1006E8006FA179EF03F07BEF03F081EF03F0D8906F
:1006F8006F3101096F6F83EF03F0D8906F3360A1FA
:1007080088EF03F08AEF03F08BEF03F06F8F633508
:1007180063336233613360336E2B6D516E5DD8A0E5
:1007280098EF03F09AEF03F074EF03F06CBD9FEFBE
:1007380003F0A1EF03F0E1EF03F06E51D8A4A7EFA7
:1007480003F0A9EF03F0B3EF03F0000E606F000EA3
:10075800616F000E626F000E636F02EF05F0645167
:10076800602765516123665162236751632363A142
:10077800C0EF03F0C2EF03F06EEF04F06FA1C7EF14
:1007880003F0C9EF03F0CFEF03F0D8906F31010900
:100798006F6FD1EF03F0D8906F3360A1D6EF03F0FD
:1007A800D8EF03F0D9EF03F06F8F6335633362330B
:1007B800613360336E2B6EEF04F06451605D6551F8
:1007C8006159665162596351800A686F6751800A9E
:1007D8006859D8B0F2EF03F0F4EF03F01FEF04F01C
:1007E8006051645D686F61516559696F62516659FE
:1007F8006A6F635167596B6FFF0E6825606FFF0E54
:100808006921616FFF0E6A21626FFF0E6B21636FB2
:10081800800E6C1B6F6D6F51D8A415EF04F017EFA5
:1008280004F027EF04F0010E6027000E6123622315
:10083800632327EF04F06451605F6551615B665183
:10084800625B6751635B6051611162116311D8A4E7
:1008580030EF04F032EF04F067EF04F06F51D8A4E2
:1008680038EF04F03AEF04F067EF04F0000E606F21
:10087800000E616F000E626F000E636F02EF05F0ED
:10088800D89060376137623763376FAF4EEF04F047
:1008980050EF04F051EF04F060816FA156EF04F0BF
:1008A80058EF04F05CEF04F0D8806F375EEF04F087
:1008B800D8906F376E51D8B464EF04F066EF04F047
:1008C80067EF04F06E0762AF6CEF04F06EEF04F0B0
:1008D80044EF04F0000E6D6F6FAF75EF04F077EF23
:1008E80004F08FEF04F06FC068F07F0E6817D8B47B
:1008F80080EF04F082EF04F086EF04F0010E6D6FD4
:100908008FEF04F060A18BEF04F08DEF04F08FEF10
:1009180004F082EF04F06D51D8B495EF04F097EF2E
:1009280004F0C2EF04F0010E6027000E6123622379
:10093800632363A1A2EF04F0A4EF04F0C2EF04F074
:1009480060C068F061C069F062C06AF063C06BF0B3
:100958006B356B336A336933683368C060F069C0DC
:1009680061F06AC062F06BC063F06E29D8B4BFEF63
:1009780004F0C1EF04F0C2EF04F06E2B6E29D8B476
:10098800C8EF04F0CAEF04F0D2EF04F06E51D8A417
:10099800D0EF04F0D2EF04F0E4EF04F0000E606F43
:1009A800000E616F000E626F000E636F6E51D8A467
:1009B800E0EF04F0E2EF04F0E4EF04F0000E6C6FF7
:1009C8006EA1E9EF04F0EBEF04F0EEEF04F0628FB4
:1009D800EFEF04F0629FD8906E31636F6CAFF7EF62
:1009E80004F0F9EF04F0FAEF04F0638F60C060F0F0
:1009F80061C061F062C062F063C063F0120004502D
:100A0800800B0D6E045004240F6E03AE0EEF05F03C
:100A180010EF05F011EF05F00F800F50D8B417EF65
:100A280005F019EF05F02EEF05F00F28D8A41FEFF9
:100A380005F021EF05F029EF05F0000E016E000E1C
:100A4800026E000E036E000E046E038E000E046E1E
:100A580036EF05F0000E016E000E026E000E036EFA
:100A6800000E046E0850800B0E6E0D500E18D8B490
:100A780040EF05F042EF05F043EF05F00D8C08500C
:100A880008240E6E07AE4BEF05F04DEF05F04EEF64
:100A980005F00E800E50D8B454EF05F056EF05F06F
:100AA8006BEF05F00E28D8A45CEF05F05EEF05F0BB
:100AB80066EF05F0000E056E000E066E000E076E5E
:100AC800000E086E078E000E086E73EF05F0000E1C
:100AD800056E000E066E000E076E000E086E0F50B3
:100AE8000E5CD8B07AEF05F07CEF05F0A3EF05F0C7
:100AF8000DAC81EF05F083EF05F085EF05F0800E72
:100B08000D1A0FC010F00EC00FF010C00EF001C08B
:100B180010F005C001F010C005F002C010F006C0CA
:100B280002F010C006F003C010F007C003F010C0B8
:100B380007F004C010F008C004F010C008F0000E60
:100B4800106E0F500EC009F00A6A095E000E0A5AAC
:100B58000ABEB8EF05F00A5009E11A0E095CD8A0E0
:100B6800B8EF05F0BAEF05F0F1EF05F0015002100B
:100B780003100410D8A4C3EF05F0C6EF05F0010E6A
:100B8800C7EF05F0000E106E000E016E000E026E2B
:100B9800000E036E000E046E0EC00FF0FAEF05F0A3
:100BA80010A0D9EF05F0DBEF05F0E1EF05F0D890E4
:100BB80010300109106EE3EF05F0D890103201A053
:100BC800E8EF05F0EAEF05F0EBEF05F0108E0434DE
:100BD80004320332023201320F2A0E500F5CD8A0C1
:100BE800F8EF05F0FAEF05F0D4EF05F00DBCFFEFD4
:100BF80005F001EF06F041EF06F00F50D8A407EF1B
:100C080006F009EF06F013EF06F0000E016E000E75
:100C1800026E000E036E000E046E62EF07F00550C0
:100C2800012606500222075003220850042204A07D
:100C380020EF06F022EF06F0CEEF06F010A027EF27
:100C480006F029EF06F02FEF06F0D89010300109D2
:100C5800106E31EF06F0D890103201A036EF06F092
:100C680038EF06F039EF06F0108E04340432033200
:100C7800023201320F2ACEEF06F00550015C065011
:100C88000258075003580450800A096E0850800A19
:100C98000958D8B052EF06F054EF06F07FEF06F08F
:100CA8000150055C096E025006580A6E0350075839
:100CB8000B6E045008580C6EFF0E0924016EFF0ECF
:100CC8000A20026EFF0E0B20036EFF0E0C20046E2E
:100CD800800E0D1A106C1050D8A475EF06F077EF3F
:100CE80006F087EF06F0010E0126000E022203220D
:100CF800042287EF06F00550015E0650025A07509D
:100D0800035A0850045A0150021003100410D8A4C2
:100D180090EF06F092EF06F0C7EF06F01050D8A457
:100D280098EF06F09AEF06F0C7EF06F0000E016E96
:100D3800000E026E000E036E000E046E62EF07F0E6
:100D4800D890013602360336043610AEAEEF06F000
:100D5800B0EF06F0B1EF06F0018010A0B6EF06F094
:100D6800B8EF06F0BCEF06F0D8801036BEEF06F0FC
:100D7800D89010360F50D8B4C4EF06F0C6EF06F07E
:100D8800C7EF06F00F0603AECCEF06F0CEEF06F085
:100D9800A4EF06F0000E0E6E10AED5EF06F0D7EFFA
:100DA80006F0EFEF06F010C009F07F0E0916D8B470
:100DB800E0EF06F0E2EF06F0E6EF06F0010E0E6E49
:100DC800EFEF06F001A0EBEF06F0EDEF06F0EFEF26
:100DD80006F0E2EF06F00E50D8B4F5EF06F0F7EFA4
:100DE80006F022EF07F0010E0126000E0222032270
:100DF800042204A002EF07F004EF07F022EF07F047
:100E080001C009F002C00AF003C00BF004C00CF0E6
:100E18000C340C320B320A32093209C001F00AC014
:100E280002F00BC003F00CC004F00F28D8B41FEF79
:100E380007F021EF07F022EF07F00F2A0F28D8B4A8
:100E480028EF07F02AEF07F032EF07F00F50D8A489
:100E580030EF07F032EF07F044EF07F0000E016EB5
:100E6800000E026E000E036E000E046E0F50D8A422
:100E780040EF07F042EF07F044EF07F0000E0D6E69
:100E88000FA049EF07F04BEF07F04EEF07F0038E86
:100E98004FEF07F0039ED8900F30046E0DAE57EF5A
:100EA80007F059EF07F05AEF07F0048E01C001F080
:100EB80002C002F003C003F004C004F012000001F5
:100EC8006351800B6C6F63516325726F62AF6FEF74
:100ED80007F071EF07F072EF07F072817251D8B422
:100EE80078EF07F07AEF07F08DEF07F07229D8A4B2
:100EF80080EF07F082EF07F08AEF07F0000E606FCF
:100F0800000E616F000E626F000E636F628F95EFC7
:100F180007F0000E606F000E616F000E626F000E2A
:100F2800636F6751800B6C1B67516725716F66AFE4
:100F3800A0EF07F0A2EF07F0A3EF07F0718171515E
:100F4800D8B4A9EF07F0ABEF07F0BEEF07F07129AF
:100F5800D8A4B1EF07F0B3EF07F0BBEF07F0000E2E
:100F6800646F000E656F000E666F000E676F668F08
:100F7800C6EF07F0000E646F000E656F000E666F17
:100F8800000E676F7151D8B4CCEF07F0CEEF07F0C1
:100F9800D6EF07F07251D8A4D4EF07F0D6EF07F0D8
:100FA800E0EF07F0000E606F000E616F000E626FD9
:100FB800000E636F78EF09F066516003F3CF77F0A6
:100FC800F4CF78F077516D6F6E6B6F6B706B7851F3
:100FD800736F746B756B766B65516103F3CF77F044
:100FE800F4CF78F077516D27000E6E236F237023AE
:100FF80078517327000E7423752376236451620396
:10100800F3CF77F0F4CF78F077516D27000E6E2389
:101018006F23702378517327000E7423752376236A
:101028006FC070F06EC06FF06DC06EF06D6B645184
:101038006103F3CF77F0F4CF78F077516D277851CB
:101048006E23000E6F23000E702365516003F3CFEB
:1010580077F0F4CF78F077516D2778516E23000E32
:101068006F23000E70236FC070F06EC06FF06DC0FC
:101078006EF06D6B64516003F3CF77F0F4CF78F0C6
:1010880077516D2778516E23000E6F23000E702361
:1010980066516103F3CF77F0F4CF78F07751732777
:1010A80078517423000E7523000E76236551620370
:1010B800F3CF77F0F4CF78F0775173277851742312
:1010C800000E7523000E762366516203F3CF77F086
:1010D800F4CF78F07751686F7851696F6A6B6B6BF2
:1010E8006AC06BF069C06AF068C069F0686B6851E3
:1010F8007327695174236A5175236B5176236DC028
:1011080068F06EC069F06FC06AF070C06BF0190EBD
:1011180093EF08F0D8906B336A3369336833E82E5D
:101128008EEF08F068517327695174236A5175234B
:101138006B5176236FC070F06EC06FF06DC06EF0AB
:101148006D6B715172C068F0696B6827000E692376
:10115800820E6825776FFF0E6921786FC9EF08F056
:10116800D890733774377537763770AFBEEF08F09D
:10117800C0EF08F0C1EF08F07381D8906D376E3773
:101188006F3770377707D8A0780775AFCEEF08F0BC
:10119800D0EF08F0B4EF08F0000E716F70AFD7EF22
:1011A80008F0D9EF08F0FDEF08F0FF0E6D15686F35
:1011B800FF0E6E15696FFF0E6F156A6F7F0E701543
:1011C8006B6F685169116A116B11D8B4EEEF08F0B2
:1011D800F0EF08F0F4EF08F0010E716FFDEF08F082
:1011E80073A1F9EF08F0FBEF08F0FDEF08F0F0EF5E
:1011F80008F07151D8B403EF09F005EF09F029EFB1
:1012080009F0010E7327000E74237523762376A147
:1012180010EF09F012EF09F029EF09F073C068F038
:1012280074C069F075C06AF076C06BF06B356B33CB
:101238006A336933683368C073F069C074F06AC090
:1012480075F06BC076F0774B782B78BF34EF09F0E8
:10125800785108E17729D8A034EF09F036EF09F082
:1012680040EF09F0000E736F000E746F800E756FFB
:101278007F0E766F6EEF09F078BF4DEF09F0785169
:1012880006E17705D8B04BEF09F04DEF09F059EFBB
:1012980009F0000E736F000E746F000E756F000E6C
:1012A800766F000E6C6F6EEF09F077C072F0FF0E6C
:1012B8007317FF0E74177F0E7517000E761772A13D
:1012C80068EF09F06AEF09F06BEF09F0758FD890B5
:1012D8007231766F6C51761373C060F074C061F030
:1012E80075C062F076C063F012001250800B1B6E5E
:1012F80012501224216E11AE84EF09F086EF09F026
:1013080087EF09F021802150D8B48DEF09F08FEFD5
:1013180009F0A2EF09F02128D8A495EF09F097EF7A
:1013280009F09FEF09F0000E0F6E000E106E000E10
:10133800116E000E126E118EAAEF09F0000E0F6EDC
:10134800000E106E000E116E000E126E1650800BFD
:101358001B1A16501624206E15AEB5EF09F0B7EF1C
:1013680009F0B8EF09F020802050D8B4BEEF09F09A
:10137800C0EF09F0D3EF09F02028D8A4C6EF09F090
:10138800C8EF09F0D0EF09F0000E136E000E146ECE
:10139800000E156E000E166E158EDBEF09F0000EAE
:1013A800136E000E146E000E156E000E166E205091
:1013B800D8B4E1EF09F0E3EF09F0EBEF09F02150C1
:1013C800D8A4E9EF09F0EBEF09F0F5EF09F0000E0A
:1013D8000F6E000E106E000E116E000E126E8DEF65
:1013E8000BF015500F02F3CF26F0F4CF27F026505C
:1013F8001C6E1D6A1E6A1F6A2750226E236A246AA1
:10140800256A14501002F3CF26F0F4CF27F02650A7
:101418001C26000E1D221E221F2227502226000EE7
:1014280023222422252213501102F3CF26F0F4CFD1
:1014380027F026501C26000E1D221E221F22275090
:101448002226000E2322242225221EC01FF01DC0A2
:101458001EF01CC01DF01C6A13501002F3CF26F0BA
:10146800F4CF27F026501C2627501D22000E1E22DE
:10147800000E1F2214500F02F3CF26F0F4CF27F0EE
:1014880026501C2627501D22000E1E22000E1F2249
:101498001EC01FF01DC01EF01CC01DF01C6A13509A
:1014A8000F02F3CF26F0F4CF27F026501C26275042
:1014B8001D22000E1E22000E1F2215501002F3CF0F
:1014C80026F0F4CF27F02650222627502322000E9C
:1014D8002422000E252214501102F3CF26F0F4CF57
:1014E80027F02650222627502322000E2422000E01
:1014F800252215501102F3CF26F0F4CF27F02650FD
:10150800176E2750186E196A1A6A19C01AF018C08F
:1015180019F017C018F0176A1750222618502322FE
:10152800195024221A5025221CC017F01DC018F08B
:101538001EC019F01FC01AF0190EA8EF0AF0D890B3
:101548001A32193218321732E82EA3EF0AF0175060
:10155800222618502322195024221A5025221EC050
:101568001FF01DC01EF01CC01DF01C6A205021C0B9
:1015780017F0186A1726000E1822820E1724266EF6
:10158800FF0E1820276EDEEF0AF0D8902236233699
:10159800243625361FAED3EF0AF0D5EF0AF0D6EF82
:1015A8000AF02280D8901C361D361E361F362606B5
:1015B800D8A0270624AEE3EF0AF0E5EF0AF0C9EF5A
:1015C8000AF0000E206E1FAEECEF0AF0EEEF0AF004
:1015D80012EF0BF0FF0E1C14176EFF0E1D14186E81
:1015E800FF0E1E14196E7F0E1F141A6E1750181056
:1015F80019101A10D8B403EF0BF005EF0BF009EF30
:101608000BF0010E206E12EF0BF022A00EEF0BF084
:1016180010EF0BF012EF0BF005EF0BF02050D8B4E1
:1016280018EF0BF01AEF0BF03EEF0BF0010E22262D
:10163800000E23222422252225A025EF0BF027EFD8
:101648000BF03EEF0BF022C017F023C018F024C0B7
:1016580019F025C01AF01A341A3219321832173212
:1016680017C022F018C023F019C024F01AC025F0C2
:10167800264A272A27BE49EF0BF0275008E12628DB
:10168800D8A049EF0BF04BEF0BF055EF0BF0000E25
:10169800226E000E236E800E246E7F0E256E83EF61
:1016A8000BF027BE62EF0BF0275006E12604D8B0F6
:1016B80060EF0BF062EF0BF06EEF0BF0000E226E96
:1016C800000E236E000E246E000E256E000E1B6E9B
:1016D80083EF0BF026C021F0FF0E2216FF0E231613
:1016E8007F0E2416000E251621A07DEF0BF07FEF4C
:1016F8000BF080EF0BF0248ED8902130256E1B5014
:10170800251222C00FF023C010F024C011F025C00C
:1017180012F0120000017C51800B896F7C517C25EE
:10172800906F7BAF9AEF0BF09CEF0BF09DEF0BF0F7
:1017380090819051D8B4A3EF0BF0A5EF0BF0BAEF5E
:101748000BF09029D8A4ABEF0BF0ADEF0BF0B5EF91
:101758000BF0000E796F000E7A6F000E7B6F000E93
:101768007C6F7B8F000E7C6FC2EF0BF0000E796FE1
:10177800000E7A6F000E7B6F000E7C6F8051800B1D
:10178800891B80518025916F7FAFCDEF0BF0CFEF94
:101798000BF0D0EF0BF091819151D8B4D6EF0BF04C
:1017A800D8EF0BF0EDEF0BF09129D8A4DEEF0BF09A
:1017B800E0EF0BF0E8EF0BF0000E7D6F000E7E6F90
:1017C800000E7F6F000E806F7F8F000E806FF5EF29
:1017D8000BF0000E7D6F000E7E6F000E7F6F000E07
:1017E800806F7D517E117F118011D8A4FEEF0BF020
:1017F80000EF0CF018EF0CF0000E796F000E7A6F06
:10180800000E7B6F000E7C6F800E7B137F0E7C13A7
:1018180089517C1379C079F07AC07AF07BC07BF06B
:101828007CC07CF05BEF0DF09051D8A41EEF0CF05B
:1018380020EF0CF02AEF0CF0000E796F000E7A6F93
:10184800000E7B6F000E7C6F5BEF0DF0915190C026
:1018580081F0826B815F000E825B7F0E81258A6F2B
:10186800000E82218B6F79C085F07AC086F07BC02C
:1018780087F07CC088F0000E796F000E7A6F000E3A
:101888007B6F000E7C6F000E8C6F000E8D6F000E4C
:101898008E6F000E8F6F000E916F8BEF0CF09151D1
:1018A800D8B459EF0CF05BEF0CF072EF0CF0D89055
:1018B8008537863787378837D89079377A377B37AF
:1018C8007C378FAF6AEF0CF06CEF0CF06DEF0CF01B
:1018D8007981D8908C378D378E378F377D51855DDC
:1018E8007E5186597F51875980518859D8A07FEFFA
:1018F8000CF081EF0CF08AEF0CF08F8D7D51855F35
:101908007E51865B7F51875B8051885B912B190ED6
:10191800916591EF0CF093EF0CF053EF0CF08551BB
:10192800861187118811D8B49CEF0CF09EEF0CF04B
:10193800B6EF0CF08C81B6EF0CF0D89079377A3787
:101948007B377C378FAFABEF0CF0ADEF0CF0AEEF21
:101958000CF07981D8908C378D378E378F378A077E
:10196800D8A08B077BAFBBEF0CF0BDEF0CF0A1EF5D
:101978000CF0000E916F8FAFC4EF0CF0C6EF0CF0B7
:10198800EAEF0CF0FF0E8C15816FFF0E8D15826F3C
:10199800FF0E8E15836F7F0E8F15846F8151821114
:1019A80083118411D8B4DBEF0CF0DDEF0CF0E1EF1C
:1019B8000CF0010E916FEAEF0CF079A1E6EF0CF054
:1019C800E8EF0CF0EAEF0CF0DDEF0CF09151D8B431
:1019D800F0EF0CF0F2EF0CF016EF0DF0010E792796
:1019E800000E7A237B237C237CA1FDEF0CF0FFEF14
:1019F8000CF016EF0DF079C081F07AC082F07BC050
:101A080083F07CC084F0843584338333823381331C
:101A180081C079F082C07AF083C07BF084C07CF00A
:101A28008A4B8B2B8BBF21EF0DF08B5108E18A2954
:101A3800D8A021EF0DF023EF0DF02EEF0DF0000EE2
:101A48008B6F8A69000E796F000E7A6F000E7B6FBC
:101A5800000E7C6F8BBF3BEF0DF08B5106E18A05C2
:101A6800D8B039EF0DF03BEF0DF049EF0DF0000E57
:101A78008B6F000E8A6F000E796F000E7A6F000E62
:101A88007B6F000E7C6F000E896F8AC090F090A16A
:101A980050EF0DF052EF0DF055EF0DF07B8F56EF34
:101AA8000DF07B9FD89090317C6F0CEF0CF01200FA
:101AB8002B50800B386E2B502B243F6E2AAE67EFCD
:101AC8000DF069EF0DF06AEF0DF03F803F50D8B48C
:101AD80070EF0DF072EF0DF087EF0DF03F28D8A4EE
:101AE80078EF0DF07AEF0DF082EF0DF0000E286E12
:101AF800000E296E000E2A6E000E2B6E2A8E000E26
:101B08002B6E8FEF0DF0000E286E000E296E000E62
:101B18002A6E000E2B6E2F50800B381A2F502F2450
:101B2800406E2EAE9AEF0DF09CEF0DF09DEF0DF08C
:101B380040804050D8B4A3EF0DF0A5EF0DF0BAEFF8
:101B48000DF04028D8A4ABEF0DF0ADEF0DF0B5EFD8
:101B58000DF0000E2C6E000E2D6E000E2E6E000E77
:101B68002F6E2E8E000E2F6EC2EF0DF0000E2C6E13
:101B7800000E2D6E000E2E6E000E2F6E2C502D10A6
:101B88002E102F10D8A4CBEF0DF0CDEF0DF0E5EF10
:101B98000DF0000E286E000E296E000E2A6E000E43
:101BA8002B6E800E2A127F0E2B1238502B1228C053
:101BB80028F029C029F02AC02AF02BC02BF028EFE2
:101BC8000FF03F50D8A4EBEF0DF0EDEF0DF0F7EF6D
:101BD8000DF0000E286E000E296E000E2A6E000E03
:101BE8002B6E28EF0FF040503FC030F0316A305E66
:101BF800000E315A7F0E3024396E000E31203A6EB5
:101C080028C034F029C035F02AC036F02BC037F090
:101C1800000E286E000E296E000E2A6E000E2B6E26
:101C2800000E3B6E000E3C6E000E3D6E000E3E6ECA
:101C3800000E406E58EF0EF04050D8B426EF0EF06C
:101C480028EF0EF03FEF0EF0D890343635363636A2
:101C58003736D890283629362A362B363EAE37EF17
:101C68000EF039EF0EF03AEF0EF02880D8903B36A0
:101C78003C363D363E362C50345C2D5035582E506F
:101C880036582F503758D8A04CEF0EF04EEF0EF0C4
:101C980057EF0EF03E8C2C50345E2D50355A2E5096
:101CA800365A2F50375A402A190E40645EEF0EF00C
:101CB80060EF0EF020EF0EF034503510361037106C
:101CC800D8B469EF0EF06BEF0EF083EF0EF03B80A7
:101CD80083EF0EF0D890283629362A362B363EAEBA
:101CE80078EF0EF07AEF0EF07BEF0EF02880D890A8
:101CF8003B363C363D363E363906D8A03A062AAE43
:101D080088EF0EF08AEF0EF06EEF0EF0000E406EC8
:101D18003EAE91EF0EF093EF0EF0B7EF0EF0FF0E20
:101D28003B14306EFF0E3C14316EFF0E3D14326EC4
:101D38007F0E3E14336E3050311032103310D8B449
:101D4800A8EF0EF0AAEF0EF0AEEF0EF0010E406E07
:101D5800B7EF0EF028A0B3EF0EF0B5EF0EF0B7EF27
:101D68000EF0AAEF0EF04050D8B4BDEF0EF0BFEF62
:101D78000EF0E3EF0EF0010E2826000E29222A228B
:101D88002B222BA0CAEF0EF0CCEF0EF0E3EF0EF0F3
:101D980028C030F029C031F02AC032F02BC033F00F
:101DA8003334333232323132303230C028F031C03D
:101DB80029F032C02AF033C02BF0394A3A2A3ABE09
:101DC800EEEF0EF03A5008E13928D8A0EEEF0EF009
:101DD800F0EF0EF0FBEF0EF0000E3A6E3968000ED1
:101DE800286E000E296E000E2A6E000E2B6E3ABE6B
:101DF80008EF0FF03A5006E13904D8B006EF0FF0BB
:101E080008EF0FF016EF0FF0000E3A6E000E396E65
:101E1800000E286E000E296E000E2A6E000E2B6E24
:101E2800000E386E39C03FF03FA01DEF0FF01FEFD6
:101E38000FF022EF0FF02A8E23EF0FF02A9ED89092
:101E48003F302B6ED9EF0DF012004C0E0001D36F0E
:101E58002C0ED26F440ED56FC00ED46F000E5D6E7F
:101E6800000E5C6E000E5B6E000E5A6E000ED16F97
:101E7800010ED06F000ECC6F000ECD6F900ECE6F9E
:101E8800400ECF6FCCC079F0CDC07AF0CEC07BF0D9
:101E9800CFC07CF0000E7D6F000E7E6FA00E7F6FAE
:101EA800410E806F8EEC0BF079C0D6F07AC0D7F077
:101EB8007BC0D8F07CC0D9F0D4C060F0D5C061F048
:101EC8000001000E61BFFF0E626F636F010E2FEC01
:101ED80010F060C079F061C07AF062C07BF063C036
:101EE8007CF0CCC07DF0CDC07EF0CEC07FF0CFC0FE
:101EF80080F08EEC0BF079C0C8F07AC0C9F07BC0D6
:101F0800CAF07CC0CBF0D2C060F0D3C061F0000151
:101F1800000E61BFFF0E626F636F010E2FEC10F0B1
:101F280060C079F061C07AF062C07BF063C07CF079
:101F3800CCC07DF0CDC07EF0CEC07FF0CFC080F0A9
:101F48008EEC0BF079C0C4F07AC0C5F07BC0C6F047
:101F58007CC0C7F0D6C060F0D7C061F0D8C062F0CE
:101F6800D9C063F0000E0001646F000E656FA80E03
:101F7800666F410E676F63EC07F060C0C0F061C028
:101F8800C1F062C0C2F063C0C3F0000E576E000E0D
:101F9800566E000E0001B16F000EB06FF2949E9065
:101FA800A192F28A9D80A082000ED56ED59E000E69
:101FB8007D6F000E7E6F000E7F6F400E806F000EEB
:101FC800646F240E656F740E666F480E676FD6C017
:101FD80060F0D7C061F0D8C062F0D9C063F063EC9C
:101FE80007F060C079F061C07AF062C07BF063C02E
:101FF8007CF08EEC0BF079C096F07AC097F07BC03D
:1020080098F07CC099F0000E0001926F000E936F5B
:10201800800E946F470E956FECEC12F092C09AF018
:1020280093C09BF094C09CF095C09DF0E5EC11F036
:102038009AC0D6FF9BC0D7FF800ECD6ECD90800E84
:10204800B16EB190F28EF80E956E000E8C6E2BEF7D
:1020580010F007EF00F00001686F00016851D8B474
:1020680038EF10F03AEF10F05CEF10F063BF41EF7B
:1020780010F03FEF10F05CEF10F060C064F061C04A
:1020880065F062C066F063C067F0641F651F661F75
:10209800671F642B000E65236623672364C06AF0FC
:1020A80065C06BF066C06CF067C06DF064EF10F04F
:1020B80060C06AF061C06BF062C06CF063C06DF024
:1020C8006051611162116311D8A46DEF10F06FEFC8
:1020D80010F079EF10F0000E606F000E616F000EC7
:1020E800626F000E636F0AEF11F0960E696F83EF4F
:1020F80010F0692BD8906D336C336B336A33000E54
:102108006A15646F000E6B15656F000E6C15666FAF
:10211800FE0E6D15676F6451651166116711D8A4BD
:1021280098EF10F09AEF10F07DEF10F0A8EF10F094
:10213800692B010E6A27000E6B236C236D23D89040
:102148006D336C336B336A33000E6A15646F000E9F
:102158006B15656F000E6C15666FFF0E6D15676F5A
:102168006451651166116711D8A4BDEF10F0BFEF77
:1021780010F09CEF10F0C7EF10F06907D8906A379D
:102188006B376C376D376CBFCCEF10F0CEEF10F0BB
:10219800D6EF10F0020E6961D4EF10F0D6EF10F010
:1021A800C1EF10F069B1DBEF10F0DDEF10F0DEEFFA
:1021B80010F06C9FD890693369C064F0656B666BEA
:1021C800676B64C067F0666B656B646B64516A1318
:1021D80065516B1366516C1367516D136851D8B410
:1021E800F8EF10F0FAEF10F002EF11F063BF01EF13
:1021F80011F0FFEF10F002EF11F06D8F6AC060F080
:102208006BC061F06CC062F06DC063F01200096EC3
:102218000950D8B412EF11F014EF11F036EF11F0A5
:1022280004BE1BEF11F019EF11F036EF11F001C0E9
:1022380005F002C006F003C007F004C008F0051E50
:10224800061E071E081E052A000E0622072208225F
:1022580005C00BF006C00CF007C00DF008C00EF06A
:102268003EEF11F001C00BF002C00CF003C00DF0FE
:1022780004C00EF00150021003100410D8A447EF58
:1022880011F049EF11F053EF11F0000E016E000E3E
:10229800026E000E036E000E046EE4EF11F0960E4F
:1022A8000A6E5DEF11F00A2AD8900E320D320C3208
:1022B8000B32000E0B14056E000E0C14066E000E89
:1022C8000D14076EFE0E0E14086E0550061007104A
:1022D8000810D8A472EF11F074EF11F057EF11F055
:1022E80082EF11F00A2A010E0B26000E0C220D2295
:1022F8000E22D8900E320D320C320B32000E0B1417
:10230800056E000E0C14066E000E0D14076EFF0EFF
:102318000E14086E0550061007100810D8A497EF81
:1023280011F099EF11F076EF11F0A1EF11F00A0614
:10233800D8900B360C360D360E360DBEA6EF11F0C2
:10234800A8EF11F0B0EF11F0020E0A60AEEF11F035
:10235800B0EF11F09BEF11F00AB0B5EF11F0B7EF45
:1023680011F0B8EF11F00D9ED8900A320AC005F0AE
:10237800066A076A086A05C008F0076A066A056AF5
:1023880005500B1206500C1207500D1208500E1271
:102398000950D8B4D2EF11F0D4EF11F0DCEF11F0FE
:1023A80004BEDBEF11F0D9EF11F0DCEF11F00E8E67
:1023B8000BC001F00CC002F00DC003F00EC004F019
:1023C800120000019C359D35A36FA351D8A4EFEFEF
:1023D80011F0F1EF11F0FBEF11F0000E9A6F000E03
:1023E8009B6F000E9C6F000E9D6F68EF12F09AC0F5
:1023F8009EF09BC09FF09CC0A0F09DC0A1F0200E55
:102408000BEF12F0D890A133A0339F339E33E82E00
:1024180006EF12F09E51A26F9C8FFF0E9A17FF0EC7
:102428009B17FF0E9C17000E9D17960EA35FA3BF68
:1024380022EF12F020EF12F038EF12F0A351800AC9
:10244800970FD8B02AEF12F02CEF12F02EEF12F0FF
:10245800F1EF11F0D8909D339C339B339A33A33F0F
:102468002EEF12F050EF12F01F0EA3653EEF12F0A0
:1024780040EF12F048EF12F0F1EF11F0D8909A37D0
:102488009B379C379D37A307A351D8A44EEF12F072
:1024980050EF12F042EF12F0A251D8B456EF12F0FA
:1024A80058EF12F060EF12F09D1F9C1F9B1F9A6D52
:1024B800000E9B239C239D239AC09AF09BC09BF0FF
:1024C8009CC09CF09DC09DF012004B344C34526E61
:1024D8005250D8A472EF12F074EF12F07EEF12F09F
:1024E800000E496E000E4A6E000E4B6E000E4C6ECA
:1024F800EBEF12F049C04DF04AC04EF04BC04FF020
:102508004CC050F0200E8EEF12F0D89050324F325F
:102518004E324D32E82E89EF12F04D50516E4B8EEF
:10252800FF0E4916FF0E4A16FF0E4B16000E4C16EC
:10253800960E525E52BEA5EF12F0A3EF12F0BBEF5B
:1025480012F05250800A970FD8B0ADEF12F0AFEFEB
:1025580012F0B1EF12F074EF12F0D8904C324B3207
:102568004A324932523EB1EF12F0D3EF12F01F0E49
:102578005264C1EF12F0C3EF12F0CBEF12F074EF18
:1025880012F0D89049364A364B364C3652065250DD
:10259800D8A4D1EF12F0D3EF12F0C5EF12F05150DA
:1025A800D8B4D9EF12F0DBEF12F0E3EF12F04C1EC3
:1025B8004B1E4A1E496C000E4A224B224C2249C02F
:1025C80049F04AC04AF04BC04BF04CC04CF01200E6
:1025D800000E0001961B000E971B000E981B800E24
:1025E800991B92C060F093C061F094C062F095C0EE
:1025F80063F096C064F097C065F098C066F099C023
:1026080067F0A2EC02F060C092F061C093F062C083
:1026180094F063C095F01200000E451A000E461A99
:10262800000E471A800E481A41C001F042C002F05D
:1026380043C003F044C004F045C005F046C006F0AE
:1026480047C007F048C008F003EC05F001C041F0AE
:1026580002C042F003C043F004C044F0120000EE90
:10266800A4F01C0EEE6AE806FDE100EE56F0080E36
:10267800EE6AE806FDE15E905E92000129EF0FF038
:020000040020DA
:08000000FFFFFFFFFFFFFFFF00
:020000040030CA
:0E00000000091F1EFF8181FF0FC00FE00F409F
:00000001FF
