:0400000007EF00F016
:100008005C824BED06F04AEF0BF00750800B106E48
:1000180007500724126E06AE14EF00F016EF00F03A
:1000280017EF00F012801250D8B41DEF00F01FEF48
:1000380000F034EF00F01228D8A425EF00F027EFE5
:1000480000F02FEF00F0000E046E000E056E000E9B
:10005800066E000E076E068E000E076E3CEF00F06F
:10006800000E046E000E056E000E066E000E076E82
:100078000B50800B116E10501118D8B446EF00F0D9
:1000880048EF00F049EF00F0108C0B500B24116E74
:100098000AAE51EF00F053EF00F054EF00F011807A
:1000A8001150D8B45AEF00F05CEF00F071EF00F097
:1000B8001128D8A462EF00F064EF00F06CEF00F0B4
:1000C800000E086E000E096E000E0A6E000E0B6E12
:1000D8000A8E000E0B6E79EF00F0000E086E000E0F
:1000E800096E000E0A6E000E0B6E1250115CD8B02D
:1000F80080EF00F082EF00F0A9EF00F010AC87EF7E
:1001080000F089EF00F08BEF00F0800E101A12C09B
:1001180013F011C012F013C011F004C013F008C09E
:1001280004F013C008F005C013F009C005F013C0AF
:1001380009F006C013F00AC006F013C00AF007C0A1
:1001480013F00BC007F013C00BF0000E136E125023
:1001580011C00CF00D6A0C5E000E0D5A0DBEBEEFFC
:1001680000F00D5009E11A0E0C5CD8A0BEEF00F0AB
:10017800C0EF00F0F7EF00F004500510061007106C
:10018800D8A4C9EF00F0CCEF00F0010ECDEF00F0DD
:10019800000E136E000E046E000E056E000E066E45
:1001A800000E076E11C012F000EF01F013A0DFEF90
:1001B80000F0E1EF00F0E7EF00F0D890133001090C
:1001C800136EE9EF00F0D890133204A0EEEF00F0C0
:1001D800F0EF00F0F1EF00F0138E0734073206322B
:1001E80005320432122A1150125CD8A0FEEF00F03A
:1001F80000EF01F0DAEF00F010BC05EF01F007EFB7
:1002080001F047EF01F01250D8A40DEF01F00FEF05
:1002180001F019EF01F0000E046E000E056E000EDD
:10022800066E000E076E68EF02F0085004260950AB
:1002380005220A5006220B50072207A026EF01F0DC
:1002480028EF01F0D4EF01F013A02DEF01F02FEF0C
:1002580001F035EF01F0D89013300109136E37EF34
:1002680001F0D890133204A03CEF01F03EEF01F00A
:100278003FEF01F0138E073407320632053204329D
:10028800122AD4EF01F00850045C095005580A50AE
:1002980006580750800A0C6E0B50800A0C58D8B0CC
:1002A80058EF01F05AEF01F085EF01F00450085CB7
:1002B8000C6E055009580D6E06500A580E6E075000
:1002C8000B580F6EFF0E0C24046EFF0E0D20056EEA
:1002D800FF0E0E20066EFF0E0F20076E800E101AFE
:1002E800136C1350D8A47BEF01F07DEF01F08DEF74
:1002F80001F0010E0426000E0522062207228DEFCA
:1003080001F00850045E0950055A0A50065A0B506D
:10031800075A0450051006100710D8A496EF01F0EC
:1003280098EF01F0CDEF01F01350D8A49EEF01F043
:10033800A0EF01F0CDEF01F0000E046E000E056E87
:10034800000E066E000E076E68EF02F0D8900436B5
:1003580005360636073613AEB4EF01F0B6EF01F0F6
:10036800B7EF01F0048013A0BCEF01F0BEEF01F07D
:10037800C2EF01F0D8801336C4EF01F0D8901336DD
:100388001250D8B4CAEF01F0CCEF01F0CDEF01F074
:10039800120606AED2EF01F0D4EF01F0AAEF01F099
:1003A800000E116E13AEDBEF01F0DDEF01F0F5EF9B
:1003B80001F013C00CF07F0E0C16D8B4E6EF01F074
:1003C800E8EF01F0ECEF01F0010E116EF5EF01F02E
:1003D80004A0F1EF01F0F3EF01F0F5EF01F0E8EF21
:1003E80001F01150D8B4FBEF01F0FDEF01F028EF58
:1003F80002F0010E0426000E05220622072207A09D
:1004080008EF02F00AEF02F028EF02F004C00CF047
:1004180005C00DF006C00EF007C00FF00F340F3204
:100428000E320D320C320CC004F00DC005F00EC0B7
:1004380006F00FC007F01228D8B425EF02F027EF16
:1004480002F028EF02F0122A1228D8B42EEF02F098
:1004580030EF02F038EF02F01250D8A436EF02F075
:1004680038EF02F04AEF02F0000E046E000E056E3F
:10047800000E066E000E076E1250D8A446EF02F06A
:1004880048EF02F04AEF02F0000E106E12A04FEF94
:1004980002F051EF02F054EF02F0068E55EF02F031
:1004A800069ED8901230076E10AE5DEF02F05FEF37
:1004B80002F060EF02F0078E04C004F005C005F0FA
:1004C80006C006F007C007F012001550800B1E6E1C
:1004D80015501524246E14AE74EF02F076EF02F076
:1004E80077EF02F024802450D8B47DEF02F07FEF3C
:1004F80002F092EF02F02428D8A485EF02F087EFEB
:1005080002F08FEF02F0000E126E000E136E000E56
:10051800146E000E156E148E9AEF02F0000E126E15
:10052800000E136E000E146E000E156E1950800B1F
:100538001E1A195019241F6E18AEA5EF02F0A7EF66
:1005480002F0A8EF02F01F801F50D8B4AEEF02F0FF
:10055800B0EF02F0C3EF02F01F28D8A4B6EF02F004
:10056800B8EF02F0C0EF02F0000E166E000E176E24
:10057800000E186E000E196E188ECBEF02F0000EEA
:10058800166E000E176E000E186E000E196E1F50B4
:10059800D8B4D1EF02F0D3EF02F0DBEF02F0245031
:1005A800D8A4D9EF02F0DBEF02F0E5EF02F0000E7D
:1005B800126E000E136E000E146E000E156E7DEF97
:1005C80004F018501202F3CF29F0F4CF2AF0295082
:1005D800206E216A226A236A2A50256E266A276AB3
:1005E800286A17501302F3CF29F0F4CF2AF02950C4
:1005F8002026000E2122222223222A502526000E00
:1006080026222722282216501402F3CF29F0F4CFED
:100618002AF029502026000E2122222223222A50A5
:100628002526000E26222722282222C023F021C0B8
:1006380022F020C021F0206A16501302F3CF29F0CF
:10064800F4CF2AF0295020262A502122000E2222F7
:10065800000E232217501202F3CF29F0F4CF2AF00C
:10066800295020262A502122000E2222000E232261
:1006780022C023F021C022F020C021F0206A1650A9
:100688001202F3CF29F0F4CF2AF0295020262A505D
:100698002122000E2222000E232218501302F3CF2B
:1006A80029F0F4CF2AF0295025262A502622000EB8
:1006B8002722000E282217501402F3CF29F0F4CF76
:1006C8002AF0295025262A502622000E2722000E1D
:1006D800282218501402F3CF29F0F4CF2AF0295019
:1006E8001A6E2A501B6E1C6A1D6A1CC01DF01BC0A6
:1006F8001CF01AC01BF01A6A1A5025261B50262215
:100708001C5027221D50282220C01AF021C01BF09F
:1007180022C01CF023C01DF0190E98EF03F0D890EA
:100728001D321C321B321A32E82E93EF03F01A5096
:1007380025261B5026221C5027221D50282222C065
:1007480023F021C022F020C021F0206A1F5024C0CD
:100758001AF01B6A1A26000E1B22820E1A24296E12
:10076800FF0E1B202A6ECEEF03F0D89025362636D2
:100778002736283623AEC3EF03F0C5EF03F0C6EFE4
:1007880003F02580D89020362136223623362906D4
:10079800D8A02A0627AED3EF03F0D5EF03F0B9EFC0
:1007A80003F0000E1F6E23AEDCEF03F0DEEF03F064
:1007B80002EF04F0FF0E20141A6EFF0E21141B6EB8
:1007C800FF0E22141C6E7F0E23141D6E1A501B1070
:1007D8001C101D10D8B4F3EF03F0F5EF03F0F9EF98
:1007E80003F0010E1F6E02EF04F025A0FEEF03F0E8
:1007F80000EF04F002EF04F0F5EF03F01F50D8B457
:1008080008EF04F00AEF04F02EEF04F0010E25269D
:10081800000E26222722282228A015EF04F017EF21
:1008280004F02EEF04F025C01AF026C01BF027C0F4
:100838001CF028C01DF01D341D321C321B321A3228
:100848001AC025F01BC026F01CC027F01DC028F0D8
:10085800294A2A2A2ABE39EF04F02A5008E1292811
:10086800D8A039EF04F03BEF04F045EF04F0000E98
:10087800256E000E266E800E276E7F0E286E73EF93
:1008880004F02ABE52EF04F02A5006E12904D8B039
:1008980050EF04F052EF04F05EEF04F0000E256E06
:1008A800000E266E000E276E000E286E000E1E6EBD
:1008B80073EF04F029C024F0FF0E2516FF0E26164C
:1008C8007F0E2716000E281624A06DEF04F06FEF98
:1008D80004F070EF04F0278ED8902430286E1E5054
:1008E800281225C012F026C013F027C014F028C023
:1008F80015F012002E50800B3B6E2E502E24426EA7
:100908002DAE89EF04F08BEF04F08CEF04F04280F9
:100918004250D8B492EF04F094EF04F0A9EF04F039
:100928004228D8A49AEF04F09CEF04F0A4EF04F056
:10093800000E2B6E000E2C6E000E2D6E000E2E6E0D
:100948002D8E000E2E6EB1EF04F0000E2B6E000EF1
:100958002C6E000E2D6E000E2E6E3250800B3B1A40
:1009680032503224436E31AEBCEF04F0BEEF04F0D7
:10097800BFEF04F043804350D8B4C5EF04F0C7EF8D
:1009880004F0DCEF04F04328D8A4CDEF04F0CFEF57
:1009980004F0D7EF04F0000E2F6E000E306E000E3C
:1009A800316E000E326E318E000E326EE4EF04F0BE
:1009B800000E2F6E000E306E000E316E000E326E7D
:1009C8002F50301031103210D8A4EDEF04F0EFEFB3
:1009D80004F007EF05F0000E2B6E000E2C6E000ED3
:1009E8002D6E000E2E6E800E2D127F0E2E123B5095
:1009F8002E122BC02BF02CC02CF02DC02DF02EC0A9
:100A08002EF04AEF06F04250D8A40DEF05F00FEF94
:100A180005F019EF05F0000E2B6E000E2C6E000E7F
:100A28002D6E000E2E6E4AEF06F0435042C033F092
:100A3800346A335E000E345A7F0E33243C6E000E47
:100A480034203D6E2BC037F02CC038F02DC039F063
:100A58002EC03AF0000E2B6E000E2C6E000E2D6E7E
:100A6800000E2E6E000E3E6E000E3F6E000E406EA3
:100A7800000E416E000E436E7AEF05F04350D8B475
:100A880048EF05F04AEF05F061EF05F0D8903736EA
:100A9800383639363A36D8902B362C362D362E360F
:100AA80041AE59EF05F05BEF05F05CEF05F02B80E8
:100AB800D8903E363F36403641362F50375C30505E
:100AC80038583150395832503A58D8A06EEF05F09E
:100AD80070EF05F079EF05F0418C2F50375E3050FC
:100AE800385A3150395A32503A5A432A190E436407
:100AF80080EF05F082EF05F042EF05F0375038102F
:100B080039103A10D8B48BEF05F08DEF05F0A5EF4A
:100B180005F03E80A5EF05F0D8902B362C362D3603
:100B28002E3641AE9AEF05F09CEF05F09DEF05F0EB
:100B38002B80D8903E363F36403641363C06D8A00A
:100B48003D062DAEAAEF05F0ACEF05F090EF05F0ED
:100B5800000E436E41AEB3EF05F0B5EF05F0D9EFE7
:100B680005F0FF0E3E14336EFF0E3F14346EFF0E79
:100B78004014356E7F0E4114366E335034103510E4
:100B88003610D8B4CAEF05F0CCEF05F0D0EF05F079
:100B9800010E436ED9EF05F02BA0D5EF05F0D7EF86
:100BA80005F0D9EF05F0CCEF05F04350D8B4DFEFEE
:100BB80005F0E1EF05F005EF06F0010E2B26000E1B
:100BC8002C222D222E222EA0ECEF05F0EEEF05F0C0
:100BD80005EF06F02BC033F02CC034F02DC035F0F3
:100BE8002EC036F03634363235323432333233C0F2
:100BF8002BF034C02CF035C02DF036C02EF03C4A16
:100C08003D2A3DBE10EF06F03D5008E13C28D8A033
:100C180010EF06F012EF06F01DEF06F0000E3D6E25
:100C28003C68000E2B6E000E2C6E000E2D6E000E12
:100C38002E6E3DBE2AEF06F03D5006E13C04D8B0CA
:100C480028EF06F02AEF06F038EF06F0000E3D6EAA
:100C5800000E3C6E000E2B6E000E2C6E000E2D6EDC
:100C6800000E2E6E000E3B6E3CC042F042A03FEFDD
:100C780006F041EF06F044EF06F02D8E45EF06F042
:100C88002D9ED89042302E6EFBEF04F01200060025
:100C9800D9CF02F0DACF03F0F2A455EF06F057EF00
:100CA80006F03CEF07F0F294240ED76E460ED66E8F
:100CB8000001E205E311D8A464EF06F066EF06F040
:100CC8006AEF06F05A4A5B2A83EF06F0BE05BF11A9
:100CD800D8A471EF06F073EF06F078EF06F05A0625
:100CE800D8A05B0683EF06F0C005C111D8A47FEF3A
:100CF80006F081EF06F083EF06F0BC4BBD2B5BBE20
:100D08008FEF06F05B5009E1130E5A5CD8A08FEF05
:100D180006F091EF06F0A4EF06F0E205E311D8A47F
:100D280098EF06F09AEF06F0A4EF06F0000EE36FD6
:100D3800000EE26F000EC16F010EC06FE7EF06F004
:100D48005BBEB0EF06F05B5009E1130E5A5CD8A009
:100D5800B0EF06F0B2EF06F0D3EF06F0C005C11110
:100D6800D8A4B9EF06F0BBEF06F0D3EF06F0BDBF8D
:100D7800C7EF06F0BD5109E1140EBC5DD8A0C7EF5E
:100D880006F0C9EF06F0D3EF06F0000EC16F000EB3
:100D9800C06F000EBF6F010EBE6FE7EF06F05BBEBF
:100DA800DAEF06F0D8EF06F0E7EF06F0BE05BF1160
:100DB800D8A4E1EF06F0E3EF06F0E7EF06F0000E47
:100DC800BF6F000EBE6F5BBEECEF06F0EEEF06F0F5
:100DD80016EF07F05BBEFCEF06F05B5007E1140E60
:100DE8005A5CD8B0FAEF06F0FCEF06F016EF07F001
:100DF800D8905A34D96E5B34DA6E880ED926000E34
:100E0800DA22DECFC4F0DDCFC5F0D8905A34D96EDF
:100E18005B34DA6E600ED926000EDA22DECFC2F01D
:100E2800DDCFC3F0E651585C5950800A016EE75196
:100E3800800A0158D8B023EF07F025EF07F029EF13
:100E480007F0C4C0CEFFC5C0CFFFE451565C575071
:100E5800800A016EE551800A0158D8B036EF07F0D4
:100E680038EF07F03CEF07F0C2C0B2FFC3C0B3FFD2
:100E78009EA041EF07F043EF07F061EF07F09E9067
:100E8800C4C0CEFFC5C0CFFF8CA04DEF07F04FEF19
:100E980007F051EF07F0584A592A0001E651585C0B
:100EA8005950800A016EE751800A0158D8B05FEFA7
:100EB80007F061EF07F061EF07F0A1A266EF07F016
:100EC80068EF07F086EF07F0A192C2C0B2FFC3C077
:100ED800B3FF0001E451565C5750800A016EE5519A
:100EE800800A0158D8B07BEF07F07DEF07F07DEF5F
:100EF80007F08CA282EF07F084EF07F086EF07F087
:100F0800564A572A03C0DAFF02C0D9FF5C92110083
:100F1800000E0001F16F010EF06FF0C004F0F1C097
:100F280005F0000E05BEFF0E066E076E010ECAEC38
:100F380009F004C012F005C013F006C014F007C091
:100F480015F0D6C016F0D7C017F0D8C018F0D9C021
:100F580019F069EC02F012C0CEF013C0CFF014C043
:100F6800D0F015C0D1F0F0C004F0F1C005F0000ECB
:100F780005BEFF0E066E076E010ECAEC09F004C02E
:100F880012F005C013F006C014F007C015F0D2C067
:100F980016F0D3C017F0D4C018F0D5C019F069EC1A
:100FA80002F012C0CAF013C0CBF014C0CCF015C0C8
:100FB800CDF0000E2B6E000E2C6E000E2D6E3F0E27
:100FC8002E6ECEC02FF0CFC030F0D0C031F0D1C0DF
:100FD80032F07EEC04F02BC0B8F02CC0B9F02DC074
:100FE800BAF02EC0BBF0000E2B6E000E2C6E000E59
:100FF8002D6E3F0E2E6ECAC02FF0CBC030F0CCC085
:1010080031F0CDC032F07EEC04F02BC0B4F02CC02F
:10101800B5F02DC0B6F02EC0B7F0000E2F6E000E42
:10102800306E800E316E400E326E000E166E240E3B
:10103800176EF40E186E490E196EB8C012F0B9C0CA
:1010480013F0BAC014F0BBC015F069EC02F012C07E
:101058002BF013C02CF014C02DF015C02EF07EEC30
:1010680004F02BC048F02CC049F02DC04AF02EC027
:101078004BF0000E446E000E456E800E466E470E15
:10108800476E27EC0BF044C04CF045C04DF046C00D
:101098004EF047C04FF0A4EC0AF0D8900001F035AC
:1010A800D96EF135DA6E860ED926000EDA224CC0DA
:1010B800DEFF4DC0DDFF000E2F6E000E306E800E7D
:1010C800316E400E326E000E166E240E176EF40E40
:1010D800186E490E196EB4C012F0B5C013F0B6C040
:1010E80014F0B7C015F069EC02F012C02BF013C071
:1010F8002CF014C02DF015C02EF07EEC04F02BC09F
:1011080048F02CC049F02DC04AF02EC04BF0000E1C
:10111800446E000E456E800E466E470E476E27ECF5
:101128000BF044C04CF045C04DF046C04EF047C0EF
:101138004FF0A4EC0AF0D8900001F035D96EF135E3
:10114800DA6E5E0ED926000EDA224CC0DEFF4DC0E4
:10115800DDFFF04BF12BF1BFBBEF08F0F15109E1D6
:10116800150EF05DD8A0BBEF08F0BDEF08F091EFC9
:1011780007F012005A685B68000E0001BD6F000E90
:10118800BC6F000EE36F010EE26F000EBF6F000E22
:10119800BE6F000EC16F000EC06F1B0EE76F580EBA
:1011A800E66F1B0EE56F580EE46F000E596E000EC9
:1011B800586E000E576E000E566E000EDE6F000E53
:1011C800DF6F900EE06F400EE16FDEC02BF0DFC0E6
:1011D8002CF0E0C02DF0E1C02EF0000E2F6E000EB6
:1011E800306EA00E316E410E326E7EEC04F02BC0D4
:1011F800DAF02CC0DBF02DC0DCF02EC0DDF0000EE4
:10120800166E000E176E000E186E3F0E196EE6C0B1
:1012180004F0E7C005F0000E05BEFF0E066E076E6F
:10122800010ECAEC09F004C012F005C013F006C0A4
:1012380014F007C015F069EC02F012C02BF013C0CF
:101248002CF014C02DF015C02EF0DEC02FF0DFC03A
:1012580030F0E0C031F0E1C032F07EEC04F02BC099
:10126800ECF02CC0EDF02DC0EEF02EC0EFF0000E2B
:10127800166E000E176E000E186E3F0E196EE4C043
:1012880004F0E5C005F0000E05BEFF0E066E076E01
:10129800010ECAEC09F004C012F005C013F006C034
:1012A80014F007C015F069EC02F012C02BF013C05F
:1012B8002CF014C02DF015C02EF0DEC02FF0DFC0CA
:1012C80030F0E0C031F0E1C032F07EEC04F02BC029
:1012D800E8F02CC0E9F02DC0EAF02EC0EBF0ECC02D
:1012E80012F0EDC013F0EEC014F0EFC015F0CD0E03
:1012F800166ECC0E176E4C0E186E3D0E196E69ECFC
:1013080002F012C0D6F013C0D7F014C0D8F015C040
:10131800D9F0E8C012F0E9C013F0EAC014F0EBC04D
:1013280015F0CD0E166ECC0E176E4C0E186E3D0EC7
:10133800196E69EC02F012C0D2F013C0D3F014C0D9
:10134800D4F015C0D5F08CEC07F0E00E956E000EC9
:101358008C6E8C848C86F2949E90A192F28A9D80E9
:10136800A082700ED36E020ED56ED58E240ED76E67
:10137800460ED66EA00ECD6ECD80A00EB16EB18099
:10138800F28CF28EC6EF09F007EF00F00C6E0C50ED
:10139800D8B4D1EF09F0D3EF09F0F5EF09F007BEA3
:1013A800DAEF09F0D8EF09F0F5EF09F004C008F01A
:1013B80005C009F006C00AF007C00BF0081E091E98
:1013C8000A1E0B1E082A000E09220A220B2208C038
:1013D8000EF009C00FF00AC010F00BC011F0FDEFBD
:1013E80009F004C00EF005C00FF006C010F007C0E9
:1013F80011F00450051006100710D8A406EF0AF0E3
:1014080008EF0AF012EF0AF0000E046E000E056EE7
:10141800000E066E000E076EA3EF0AF0960E0D6E14
:101428001CEF0AF00D2AD890113210320F320E320A
:10143800000E0E14086E000E0F14096E000E101424
:101448000A6EFE0E11140B6E085009100A100B10CC
:10145800D8A431EF0AF033EF0AF016EF0AF041EFA3
:101468000AF00D2A010E0E26000E0F22102211225C
:10147800D890113210320F320E32000E0E14086E50
:10148800000E0F14096E000E10140A6EFF0E1114D0
:101498000B6E085009100A100B10D8A456EF0AF06A
:1014A80058EF0AF035EF0AF060EF0AF00D06D89011
:1014B8000E360F361036113610BE65EF0AF067EF9C
:1014C8000AF06FEF0AF0020E0D606DEF0AF06FEF91
:1014D8000AF05AEF0AF00DB074EF0AF076EF0AF04E
:1014E80077EF0AF0109ED8900D320DC008F0096A07
:1014F8000A6A0B6A08C00BF00A6A096A086A085087
:101508000E1209500F120A5010120B5011120C50E3
:10151800D8B491EF0AF093EF0AF09BEF0AF007BEF8
:101528009AEF0AF098EF0AF09BEF0AF0118E0EC0BE
:1015380004F00FC005F010C006F011C007F012004B
:101548004E344F34556E5550D8A4ADEF0AF0AFEF76
:101558000AF0B9EF0AF0000E4C6E000E4D6E000E48
:101568004E6E000E4F6E26EF0BF04CC050F04DC083
:1015780051F04EC052F04FC053F0200EC9EF0AF0A0
:10158800D8905332523251325032E82EC4EF0AF01A
:101598005050546E4E8EFF0E4C16FF0E4D16FF0E19
:1015A8004E16000E4F16960E555E55BEE0EF0AF029
:1015B800DEEF0AF0F6EF0AF05550800A970FD8B020
:1015C800E8EF0AF0EAEF0AF0ECEF0AF0AFEF0AF002
:1015D800D8904F324E324D324C32553EECEF0AF035
:1015E8000EEF0BF01F0E5564FCEF0AF0FEEF0AF049
:1015F80006EF0BF0AFEF0AF0D8904C364D364E366A
:101608004F3655065550D8A40CEF0BF00EEF0BF0E3
:1016180000EF0BF05450D8B414EF0BF016EF0BF0AA
:101628001EEF0BF04F1E4E1E4D1E4C6C000E4D2231
:101638004E224F224CC04CF04DC04DF04EC04EF0E3
:101648004FC04FF01200000E481A000E491A000E43
:101658004A1A800E4B1A44C004F045C005F046C033
:1016680006F047C007F048C008F049C009F04AC072
:101678000AF04BC00BF009EC00F004C044F005C0C0
:1016880045F006C046F007C047F0120000EE60F0D3
:10169800720EEE6AE806FDE1596A586A576A566A98
:0A16A8005C905C920001BEEF08F0B8
:020000040020DA
:08000000FFFFFFFFFFFFFFFF00
:020000040030CA
:0E00000000091F1EFF8181FF0FC00FE00F409F
:00000001FF
