:0400000007EF00F016
:0A000800598215ED0CF09CEF10F08A
:10080000009001000650800B0F6E06500624116EFA
:1008100005AE0DEF04F00FEF04F010EF04F01180BF
:100820001150D8B416EF04F018EF04F02DEF04F0D7
:100830001128D8A41EEF04F020EF04F028EF04F0F4
:10084000000E036E000E046E000E056E000E066EA6
:10085000058E000E066E35EF04F0000E036E000EDE
:10086000046E000E056E000E066E0A50800B106EB0
:100870000F501018D8B43FEF04F041EF04F042EFEE
:1008800004F00F8C0A500A24106E09AE4AEF04F0EF
:100890004CEF04F04DEF04F010801050D8B453EF3B
:1008A00004F055EF04F06AEF04F01028D8A45BEFD1
:1008B00004F05DEF04F065EF04F0000E076E000E2B
:1008C000086E000E096E000E0A6E098E000E0A6E8A
:1008D00072EF04F0000E076E000E086E000E096E37
:1008E000000E0A6E1150105CD8B079EF04F07BEF67
:1008F00004F0A2EF04F00FAC80EF04F082EF04F0FC
:1009000084EF04F0800E0F1A11C012F010C011F025
:1009100012C010F003C012F007C003F012C007F0BD
:1009200004C012F008C004F012C008F005C012F0B4
:1009300009C005F012C009F006C012F00AC006F0A6
:1009400012C00AF0000E126E115010C00BF00C6AAB
:100950000B5E000E0C5A0CBEB7EF04F00C5009E110
:100960001A0E0B5CD8A0B7EF04F0B9EF04F0F0EF6B
:1009700004F00350041005100610D8A4C2EF04F0D0
:10098000C5EF04F0010EC6EF04F0000E126E000E6B
:10099000036E000E046E000E056E000E066E10C093
:1009A00011F0F9EF04F012A0D8EF04F0DAEF04F040
:1009B000E0EF04F0D89012300109126EE2EF04F07B
:1009C000D890123203A0E7EF04F0E9EF04F0EAEF69
:1009D00004F0128E06340632053204320332112A34
:1009E0001050115CD8A0F7EF04F0F9EF04F0D3EF4A
:1009F00004F00FBCFEEF04F000EF05F040EF05F04F
:100A00001150D8A406EF05F008EF05F012EF05F03D
:100A1000000E036E000E046E000E056E000E066ED4
:100A200061EF06F007500326085004220950052202
:100A30000A50062206A01FEF05F021EF05F0CDEFCA
:100A400005F012A026EF05F028EF05F02EEF05F0D7
:100A5000D89012300109126E30EF05F0D8901232A2
:100A600003A035EF05F037EF05F038EF05F0128EF3
:100A700006340632053204320332112ACDEF05F076
:100A80000750035C08500458095005580650800A66
:100A90000B6E0A50800A0B58D8B051EF05F053EF97
:100AA00005F07EEF05F00350075C0B6E045008580C
:100AB0000C6E055009580D6E06500A580E6EFF0E4A
:100AC0000B24036EFF0E0C20046EFF0E0D20056E2E
:100AD000FF0E0E20066E800E0F1A126C1250D8A454
:100AE00074EF05F076EF05F086EF05F0010E0326B2
:100AF000000E04220522062286EF05F00750035E51
:100B00000850045A0950055A0A50065A0350041056
:100B100005100610D8A48FEF05F091EF05F0C6EF91
:100B200005F01250D8A497EF05F099EF05F0C6EF45
:100B300005F0000E036E000E046E000E056E000E32
:100B4000066E61EF06F0D890033604360536063699
:100B500012AEADEF05F0AFEF05F0B0EF05F003809A
:100B600012A0B5EF05F0B7EF05F0BBEF05F0D880A8
:100B70001236BDEF05F0D89012361150D8B4C3EF3D
:100B800005F0C5EF05F0C6EF05F0110605AECBEF99
:100B900005F0CDEF05F0A3EF05F0000E106E12AEDC
:100BA000D4EF05F0D6EF05F0EEEF05F012C00BF034
:100BB0007F0E0B16D8B4DFEF05F0E1EF05F0E5EF9F
:100BC00005F0010E106EEEEF05F003A0EAEF05F060
:100BD000ECEF05F0EEEF05F0E1EF05F01050D8B4C2
:100BE000F4EF05F0F6EF05F021EF06F0010E032615
:100BF000000E04220522062206A001EF06F003EFF4
:100C000006F021EF06F003C00BF004C00CF005C0A5
:100C10000DF006C00EF00E340E320D320C320B32D7
:100C20000BC003F00CC004F00DC005F00EC006F0C0
:100C30001128D8B41EEF06F020EF06F021EF06F0E1
:100C4000112A1128D8B427EF06F029EF06F031EF6A
:100C500006F01150D8A42FEF06F031EF06F043EF65
:100C600006F0000E036E000E046E000E056E000E00
:100C7000066E1150D8A43FEF06F041EF06F043EFA7
:100C800006F0000E0F6E11A048EF06F04AEF06F0D6
:100C90004DEF06F0058E4EEF06F0059ED890113010
:100CA000066E0FAE56EF06F058EF06F059EF06F05D
:100CB000068E03C003F004C004F005C005F006C0B2
:100CC00006F012001450800B1D6E14501424236E75
:100CD00013AE6DEF06F06FEF06F070EF06F02380B5
:100CE0002350D8B476EF06F078EF06F08BEF06F0DD
:100CF0002328D8A47EEF06F080EF06F088EF06F0F8
:100D0000000E116E000E126E000E136E000E146EA9
:100D1000138E93EF06F0000E116E000E126E000E91
:100D2000136E000E146E1850800B1D1A18501824E4
:100D3000226E17AE9EEF06F0A0EF06F0A1EF06F0D0
:100D400022802250D8B4A7EF06F0A9EF06F0BCEF3E
:100D500006F02228D8A4AFEF06F0B1EF06F0B9EF05
:100D600006F0000E156E000E166E000E176E000EC9
:100D7000186E178EC4EF06F0000E156E000E166E7C
:100D8000000E176E000E186E2250D8B4CAEF06F08F
:100D9000CCEF06F0D4EF06F02350D8A4D2EF06F043
:100DA000D4EF06F0DEEF06F0000E116E000E126EAC
:100DB000000E136E000E146E76EF08F0175011023D
:100DC000F3CF28F0F4CF29F028501E6E1F6A206A56
:100DD000216A2950246E256A266A276A1650120253
:100DE000F3CF28F0F4CF29F028501E26000E1F2242
:100DF0002022212229502426000E252226222722C5
:100E000015501302F3CF28F0F4CF29F028501E26F6
:100E1000000E1F222022212229502426000E2522E6
:100E20002622272220C021F01FC020F01EC01FF064
:100E30001E6A15501202F3CF28F0F4CF29F0285083
:100E40001E2629501F22000E2022000E212216509D
:100E50001102F3CF28F0F4CF29F028501E26295094
:100E60001F22000E2022000E212220C021F01FC0D0
:100E700020F01EC01FF01E6A15501102F3CF28F09B
:100E8000F4CF29F028501E2629501F22000E2022C0
:100E9000000E212217501202F3CF28F0F4CF29F0D0
:100EA0002850242629502522000E2622000E272213
:100EB00016501302F3CF28F0F4CF29F0285024263F
:100EC00029502522000E2622000E27221750130239
:100ED000F3CF28F0F4CF29F02850196E29501A6E5C
:100EE0001B6A1C6A1BC01CF01AC01BF019C01AF048
:100EF000196A195024261A5025221B5026221C50EC
:100F000027221EC019F01FC01AF020C01BF021C0FC
:100F10001CF0190E91EF07F0D8901C321B321A32D8
:100F20001932E82E8CEF07F0195024261A5025228A
:100F30001B5026221C50272220C021F01FC020F069
:100F40001EC01FF01E6A225023C019F01A6A19260B
:100F5000000E1A22820E1924286EFF0E1A20296E06
:100F6000C7EF07F0D890243625362636273621AE2F
:100F7000BCEF07F0BEEF07F0BFEF07F02480D8907A
:100F80001E361F36203621362806D8A0290626AE62
:100F9000CCEF07F0CEEF07F0B2EF07F0000E226EB5
:100FA00021AED5EF07F0D7EF07F0FBEF07F0FF0E0C
:100FB0001E14196EFF0E1F141A6EFF0E20141B6EE6
:100FC0007F0E21141C6E19501A101B101C10D8B45F
:100FD000ECEF07F0EEEF07F0F2EF07F0010E226EF4
:100FE000FBEF07F024A0F7EF07F0F9EF07F0FBEFB6
:100FF00007F0EEEF07F02250D8B401EF08F003EF4E
:1010000008F027EF08F0010E2426000E25222622E4
:10101000272227A00EEF08F010EF08F027EF08F0C6
:1010200024C019F025C01AF026C01BF027C01CF000
:101030001C341C321B321A32193219C024F01AC067
:1010400025F01BC026F01CC027F0284A292A29BEFB
:1010500032EF08F0295008E12828D8A032EF08F034
:1010600034EF08F03EEF08F0000E246E000E256EFF
:10107000800E266E7F0E276E6CEF08F029BE4BEFB8
:1010800008F0295006E12804D8B049EF08F04BEFEA
:1010900008F057EF08F0000E246E000E256E000ECB
:1010A000266E000E276E000E1D6E6CEF08F028C035
:1010B00023F0FF0E2416FF0E25167F0E2616000EB7
:1010C000271623A066EF08F068EF08F069EF08F034
:1010D000268ED8902330276E1D50271224C011F081
:1010E00025C012F026C013F027C014F01200000132
:1010F000DC05DD11D8A47FEF08F081EF08F0FEEFEA
:1011000008F0A051DE6FA151DF6FE06BE16BD051B1
:10111000DE5DD151DF59D251E059E151800AE26FD1
:10112000D351800AE259D8B098EF08F09AEF08F04E
:10113000A3EF08F0A051D05DBE6FA151D159BF6F90
:101140008C84AAEF08F0D051A05DBE6FD151A15997
:10115000BF6F8C949E51DE6F9F51DF6FE06BE16B30
:10116000D451DE5DD551DF59D651E059E151800AA5
:10117000E26FD751800AE259D8B0C1EF08F0C3EF4F
:1011800008F0CCEF08F09E51D45DBC6F9F51D5594B
:10119000BD6F8C86D3EF08F0D4519E5DBC6FD551E6
:1011A0009F59BD6F8C969C51DE6F9D51DF6FE06B38
:1011B000E16BD851DE5DD951DF59DA51E059E15187
:1011C000800AE26FDB51800AE259D8B0EAEF08F0FA
:1011D000ECEF08F0F5EF08F09C51D85DBA6F9D5127
:1011E000D959BB6F8C8867EF09F0D8519C5DBA6FF5
:1011F000D9519D59BB6F8C9867EF09F0D3BF0BEFA6
:1012000009F0D351D211D11108E1D005D8A00BEFCC
:1012100009F00DEF09F014EF09F0D0C0BEF0D1C015
:10122000BFF08C8421EF09F0D0C0DEF0D1C0DFF038
:10123000DE1FDF1FDE4BDF2BDEC0BEF0DFC0BFF0E6
:101240008C94D7BF2EEF09F0D751D611D51108E1F4
:10125000D405D8A02EEF09F030EF09F037EF09F0F0
:10126000D4C0BCF0D5C0BDF08C8644EF09F0D4C02A
:10127000DEF0D5C0DFF0DE1FDF1FDE4BDF2BDEC070
:10128000BCF0DFC0BDF08C96DBBF51EF09F0DB5145
:10129000DA11D91108E1D805D8A051EF09F053EFC0
:1012A00009F05AEF09F0D8C0BAF0D9C0BBF08C8869
:1012B00067EF09F0D8C0DEF0D9C0DFF0DE1FDF1F16
:1012C000DE4BDF2BDEC0BAF0DFC0BBF08C98BE5126
:1012D000BF11D8B46EEF09F070EF09F0C3EF09F059
:1012E000000EB96F000EB86F000E156E000E166E70
:1012F000000E176E3F0E186EBEC003F0BFC004F0A4
:10130000056A066A000EDEEC0EF003C011F004C0A0
:1013100012F005C013F006C014F062EC06F011C024
:101320002AF012C02BF013C02CF014C02DF0E7C02F
:101330002EF0E8C02FF0E9C030F0EAC031F048EC00
:101340000AF02AC0CCF02BC0CDF02CC0CEF02DC0BE
:10135000CFF0CCC011F0CDC012F0CEC013F0CFC092
:1013600014F0CD0E156ECC0E166E4C0E176E3D0E93
:10137000186E62EC06F011C090F012C091F013C02C
:1013800092F014C093F00001BC51BD11D8B4CBEF62
:1013900009F0CDEF09F020EF0AF0000EB76F000E54
:1013A000B66F000E156E000E166E000E176E3F0E15
:1013B000186EBCC003F0BDC004F0056A066A000EDA
:1013C000DEEC0EF003C011F004C012F005C013F003
:1013D00006C014F062EC06F011C02AF012C02BF027
:1013E00013C02CF014C02DF0E7C02EF0E8C02FF091
:1013F000E9C030F0EAC031F048EC0AF02AC0C8F089
:101400002BC0C9F02CC0CAF02DC0CBF0C8C011F061
:10141000C9C012F0CAC013F0CBC014F0CD0E156EC7
:10142000CC0E166E4C0E176E3D0E186E62EC06F06A
:1014300011C08CF012C08DF013C08EF014C08FF06C
:101440000001BE51BF11D8A428EF0AF02AEF0AF01C
:1014500033EF0AF0BC51BD11D8B431EF0AF033EFCD
:101460000AF047EF0AF0A469A569000EA36F000E09
:10147000A26F000EB16F010EB06F000EAD6F000EC7
:10148000AC6F000EAF6F000EAE6FAFEC0DF0120040
:101490002D50800B3A6E2D502D24416E2CAE53EF03
:1014A0000AF055EF0AF056EF0AF041804150D8B4E7
:1014B0005CEF0AF05EEF0AF073EF0AF04128D8A45F
:1014C00064EF0AF066EF0AF06EEF0AF0000E2A6E83
:1014D000000E2B6E000E2C6E000E2D6E2C8E000E4C
:1014E0002D6E7BEF0AF0000E2A6E000E2B6E000EA2
:1014F0002C6E000E2D6E3150800B3A1A3150312473
:10150000426E30AE86EF0AF088EF0AF089EF0AF0FB
:1015100042804250D8B48FEF0AF091EF0AF0A6EF64
:101520000AF04228D8A497EF0AF099EF0AF0A1EF49
:101530000AF0000E2E6E000E2F6E000E306E000EA2
:10154000316E308E000E316EAEEF0AF0000E2E6E50
:10155000000E2F6E000E306E000E316E2E502F10CA
:1015600030103110D8A4B7EF0AF0B9EF0AF0D1EF7C
:101570000AF0000E2A6E000E2B6E000E2C6E000E6E
:101580002D6E800E2C127F0E2D123A502D122AC075
:101590002AF02BC02BF02CC02CF02DC02DF014EF16
:1015A0000CF04150D8A4D7EF0AF0D9EF0AF0E3EFDE
:1015B0000AF0000E2A6E000E2B6E000E2C6E000E2E
:1015C0002D6E14EF0CF0425041C032F0336A325E9F
:1015D000000E335A7F0E32243B6E000E33203C6ED9
:1015E0002AC036F02BC037F02CC038F02DC039F0AF
:1015F000000E2A6E000E2B6E000E2C6E000E2D6E4D
:10160000000E3D6E000E3E6E000E3F6E000E406EF0
:10161000000E426E44EF0BF04250D8B412EF0BF0C4
:1016200014EF0BF02BEF0BF0D890363637363836F8
:101630003936D8902A362B362C362D3640AE23EF4D
:101640000BF025EF0BF026EF0BF02A80D8903D36FB
:101650003E363F3640362E50365C2F50375830508D
:10166000385831503958D8A038EF0BF03AEF0BF01A
:1016700043EF0BF0408C2E50365E2F50375A3050CF
:10168000385A3150395A422A190E42644AEF0BF047
:101690004CEF0BF00CEF0BF03650371038103910C0
:1016A000D8B455EF0BF057EF0BF06FEF0BF03D8018
:1016B0006FEF0BF0D8902A362B362C362D3640AEF5
:1016C00064EF0BF066EF0BF067EF0BF02A80D89019
:1016D0003D363E363F3640363B06D8A03C062CAE63
:1016E00074EF0BF076EF0BF05AEF0BF0000E426E3A
:1016F00040AE7DEF0BF07FEF0BF0A3EF0BF0FF0E92
:101700003D14326EFF0E3E14336EFF0E3F14346EE6
:101710007F0E4014356E3250331034103510D8B46B
:1017200094EF0BF096EF0BF09AEF0BF0010E426E78
:10173000A3EF0BF02AA09FEF0BF0A1EF0BF0A3EFAC
:101740000BF096EF0BF04250D8B4A9EF0BF0ABEFD3
:101750000BF0CFEF0BF0010E2A26000E2B222C22CD
:101760002D222DA0B6EF0BF0B8EF0BF0CFEF0BF062
:101770002AC032F02BC033F02CC034F02DC035F02D
:101780003534353234323332323232C02AF033C05B
:101790002BF034C02CF035C02DF03B4A3C2A3CBE27
:1017A000DAEF0BF03C5008E13B28D8A0DAEF0BF061
:1017B000DCEF0BF0E7EF0BF0000E3C6E3B68000E29
:1017C0002A6E000E2B6E000E2C6E000E2D6E3CBE8F
:1017D000F4EF0BF03C5006E13B04D8B0F2EF0BF015
:1017E000F4EF0BF002EF0CF0000E3C6E000E3B6EBF
:1017F000000E2A6E000E2B6E000E2C6E000E2D6E4B
:10180000000E3A6E3BC041F041A009EF0CF00BEF27
:101810000CF00EEF0CF02C8E0FEF0CF02C9ED890ED
:1018200041302D6EC5EF0AF012000600D9CF01F04D
:10183000DACF02F0F2A41FEF0CF021EF0CF00FEF63
:101840000DF0F294240ED76E460ED66E0001B00550
:10185000B111D8A42EEF0CF030EF0CF034EF0CF0F7
:10186000A44BA52B4DEF0CF0AC05AD11D8A43BEF6C
:101870000CF03DEF0CF042EF0CF0A407D8A0A50748
:101880004DEF0CF0AE05AF11D8A449EF0CF04BEFC3
:101890000CF04DEF0CF0A24BA32BA5BF59EF0CF0B1
:1018A000A55109E1130EA45DD8A059EF0CF05BEF30
:1018B0000CF06EEF0CF0B005B111D8A462EF0CF093
:1018C00064EF0CF06EEF0CF0000EB16F000EB06F15
:1018D000000EAF6F010EAE6FB1EF0CF0A5BF7AEF47
:1018E0000CF0A55109E1130EA45DD8A07AEF0CF01D
:1018F0007CEF0CF09DEF0CF0AE05AF11D8A483EF98
:101900000CF085EF0CF09DEF0CF0A3BF91EF0CF005
:10191000A35109E1140EA25DD8A091EF0CF093EF52
:101920000CF09DEF0CF0000EAF6F000EAE6F000ECE
:10193000AD6F010EAC6FB1EF0CF0A5BFA4EF0CF0D2
:10194000A2EF0CF0B1EF0CF0AC05AD11D8A4ABEFE9
:101950000CF0ADEF0CF0B1EF0CF0000EAD6F000E1F
:10196000AC6FA5BFB6EF0CF0B8EF0CF0E0EF0CF0E9
:10197000A5BFC6EF0CF0A55107E1140EA45DD8B0C9
:10198000C4EF0CF0C6EF0CF0E0EF0CF0D890A435EB
:10199000D96EA535DA6E600ED926000EDA22DECFBA
:1019A00057F0DDCF58F0D890A435D96EA535DA6E52
:1019B0002C0ED926010EDA22DECFB2F0DDCFB3F045
:1019C000AA51AB11D8A4E7EF0CF0E9EF0CF0EDEF62
:1019D0000CF057C0CEFF58C0CFFFA851A911D8A412
:1019E000F4EF0CF0F6EF0CF0FAEF0CF0B2C0B2FF2F
:1019F000B3C0B3FFA805A911D8A401EF0DF003EF00
:101A00000DF00FEF0DF0AA05AB11D8A40AEF0DF001
:101A10000CEF0DF00FEF0DF0D59ECD90B1909EA084
:101A200014EF0DF016EF0DF05CEF0DF09E9057C027
:101A3000CEFF58C0CFFF8CA020EF0DF022EF0DF0AD
:101A400033EF0DF00001BE51B85DBF51B959D8B0A8
:101A50002CEF0DF02EEF0DF033EF0DF0B84BB92B4E
:101A60008C905CEF0DF08CB038EF0DF03AEF0DF08C
:101A700049EF0DF00001BE51B85DBF51B959D8B062
:101A800044EF0DF046EF0DF049EF0DF08C805CEF68
:101A90000DF00001BE51B85DBF51B959D8A053EF48
:101AA0000DF055EF0DF05CEF0DF0000EAB6F010E79
:101AB000AA6FCD905CEF0DF0A1A261EF0DF063EF86
:101AC0000DF0A9EF0DF0A192B2C0B2FFB3C0B3FF09
:101AD0008CA26DEF0DF06FEF0DF080EF0DF00001B7
:101AE000BC51B65DBD51B759D8B079EF0DF07BEF61
:101AF0000DF080EF0DF0B64BB72B8C92A9EF0DF0E7
:101B00008CB285EF0DF087EF0DF096EF0DF0000130
:101B1000BC51B65DBD51B759D8B091EF0DF093EF00
:101B20000DF096EF0DF08C82A9EF0DF00001BC5185
:101B3000B65DBD51B759D8A0A0EF0DF0A2EF0DF0E2
:101B4000A9EF0DF0000EA96F010EA86FB190A9EFDB
:101B50000DF002C0DAFF01C0D9FF59921100000E4A
:101B6000566E010E556E55C003F056C004F0000EBF
:101B700004BEFF0E056E066E010EDEEC0EF003C015
:101B800011F004C012F005C013F006C014F090C0AC
:101B900015F091C016F092C017F093C018F062ECE7
:101BA00006F011C0C4F012C0C5F013C0C6F014C0D6
:101BB000C7F055C003F056C004F0000E04BEFF0E7F
:101BC000056E066E010EDEEC0EF003C011F004C0CF
:101BD00012F005C013F006C014F08CC015F08DC0D3
:101BE00016F08EC017F08FC018F062EC06F011C02E
:101BF000C0F012C0C1F013C0C2F014C0C3F0000E98
:101C00002A6E000E2B6E000E2C6E3F0E2D6EC4C081
:101C10002EF0C5C02FF0C6C030F0C7C031F048EC80
:101C20000AF02AC098F02BC099F02CC09AF02DC071
:101C30009BF0000E2A6E000E2B6E000E2C6E3F0ED7
:101C40002D6EC0C02EF0C1C02FF0C2C030F0C3C096
:101C500031F048EC0AF02AC094F02BC095F02CC06B
:101C600096F02DC097F0000E2E6E000E2F6E800E97
:101C7000306E400E316E000E156E240E166EF40E90
:101C8000176E490E186E98C011F099C012F09AC0E4
:101C900013F09BC014F062EC06F011C02AF012C0E1
:101CA0002BF013C02CF014C02DF048EC0AF02AC021
:101CB00047F02BC048F02CC049F02DC04AF0000E70
:101CC000436E000E446E800E456E470E466EC3ECAA
:101CD00010F043C04BF044C04CF045C04DF046C03E
:101CE0004EF0B8EC0FF0D8905534D96E5634DA6E09
:101CF0005E0ED926000EDA224BC0DEFF4CC0DDFF9F
:101D0000000E2E6E000E2F6E800E306E400E316E65
:101D1000000E156E240E166EF40E176E490E186E18
:101D200094C011F095C012F096C013F097C014F053
:101D300062EC06F011C02AF012C02BF013C02CF098
:101D400014C02DF048EC0AF02AC047F02BC048F030
:101D50002CC049F02DC04AF0000E436E000E446EB8
:101D6000800E456E470E466EC3EC10F043C04BF03C
:101D700044C04CF045C04DF046C04EF0B8EC0FF0FA
:101D8000D8905534D96E5634DA6E2A0ED926010E03
:101D9000DA224BC0DEFF4CC0DDFF554A562A56BE44
:101DA000DBEF0EF0565009E1150E555CD8A0DBEFC5
:101DB0000EF0DDEF0EF0B3EF0DF012000B6E0B50D6
:101DC000D8B4E5EF0EF0E7EF0EF009EF0FF006BE26
:101DD000EEEF0EF0ECEF0EF009EF0FF003C007F09E
:101DE00004C008F005C009F006C00AF0071E081E6E
:101DF000091E0A1E072A000E082209220A2207C00D
:101E00000DF008C00EF009C00FF00AC010F011EF7D
:101E10000FF003C00DF004C00EF005C00FF006C0B7
:101E200010F00350041005100610D8A41AEF0FF09C
:101E30001CEF0FF026EF0FF0000E036E000E046E85
:101E4000000E056E000E066EB7EF0FF0960E0C6ECC
:101E500030EF0FF00C2AD89010320F320E320D32C4
:101E6000000E0D14076E000E0E14086E000E0F14F7
:101E7000096EFE0E10140A6E0750081009100A10A1
:101E8000D8A445EF0FF047EF0FF02AEF0FF055EF12
:101E90000FF00C2A010E0D26000E0E220F2210222A
:101EA000D89010320F320E320D32000E0D14076E24
:101EB000000E0E14086E000E0F14096EFF0E1014A3
:101EC0000A6E0750081009100A10D8A46AEF0FF024
:101ED0006CEF0FF049EF0FF074EF0FF00C06D89095
:101EE0000D360E360F3610360FBE79EF0FF07BEF42
:101EF0000FF083EF0FF0020E0C6081EF0FF083EF15
:101F00000FF06EEF0FF00CB088EF0FF08AEF0FF0CC
:101F10008BEF0FF00F9ED8900C320CC007F0086AC0
:101F2000096A0A6A07C00AF0096A086A076A07505C
:101F30000D1208500E1209500F120A5010120B50B9
:101F4000D8B4A5EF0FF0A7EF0FF0AFEF0FF006BE7C
:101F5000AEEF0FF0ACEF0FF0AFEF0FF0108E0DC043
:101F600003F00EC004F00FC005F010C006F0120020
:101F70004D344E34546E5450D8A4C1EF0FF0C3EF1B
:101F80000FF0CDEF0FF0000E4B6E000E4C6E000EFA
:101F90004D6E000E4E6E3AEF10F04BC04FF04CC03D
:101FA00050F04DC051F04EC052F0200EDDEF0FF05A
:101FB000D8905232513250324F32E82ED8EF0FF0D3
:101FC0004F50536E4D8EFF0E4B16FF0E4C16FF0EEC
:101FD0004D16000E4E16960E545E54BEF4EF0FF0E2
:101FE000F2EF0FF00AEF10F05450800A970FD8B0BC
:101FF000FCEF0FF0FEEF0FF000EF10F0C3EF0FF06B
:10200000D8904E324D324C324B32543E00EF10F0ED
:1020100022EF10F01F0E546410EF10F012EF10F0CA
:102020001AEF10F0C3EF0FF0D8904B364C364D3608
:102030004E3654065450D8A420EF10F022EF10F082
:1020400014EF10F05350D8B428EF10F02AEF10F02E
:1020500032EF10F04E1E4D1E4C1E4B6C000E4C22EB
:102060004D224E224BC04BF04CC04CF04DC04DF0B9
:102070004EC04EF01200000E0001E76F000EE86F38
:10208000900EE96F400EEA6FE7C02AF0E8C02BF02F
:10209000E9C02CF0EAC02DF0000E2E6E000E2F6E5F
:1020A000A00E306E410E316E48EC0AF02AC0E3F00B
:1020B0002BC0E4F02CC0E5F02DC0E6F024C1D0F038
:1020C00025C1D1F00001D26BD36B26C1D4F027C15A
:1020D000D5F0D66BD76B000ED86F000ED96F000EFF
:1020E000DA6F000EDB6F000EDD6F000EDC6F77EC39
:1020F00008F0C00E956E000E8C6E8C848C868C88D9
:102100009368F2949E90A192F28A9D80A082700EB4
:10211000D36E020ED56ED58E240ED76E460ED66EB9
:10212000A00ECD6ECD80A00EB16EB180F28CF28E7D
:1021300098EF10F007EF00F0CC0EF66E210EF76E60
:10214000000EF86E01EE00F010EE2CF00900F5CF55
:10215000EEFFE550E150FAE101EE2CF0280EEE6AB8
:10216000E806FDE100EE60F0700EEE6AE806FDE1C3
:10217000586A576A59905992000EF86E080EF76E19
:1021800000013BEF10F0000E471A000E481A000E37
:10219000491A800E4A1A43C003F044C004F045C0F7
:1021A00005F046C006F047C007F048C008F049C037
:1021B00009F04AC00AF002EC04F003C043F004C086
:1021C00044F005C045F006C046F0120000000000D3
:1021D0000000F03CFC21F03CC044F03C0000502DDD
:1021E000FC21502DC044502D0000B01DFC21B01D1D
:0821F000C044B01DFC212C4C81
:020000040020DA
:08000000FFFFFFFFFFFFFFFF00
:020000040030CA
:0E00000000091F1EFF8181FF0FC00FE00F409F
:00000001FF
