:0400000007EF00F016
:0A0008005A8207ED04F0FEEF14F039
:1008000000900130004700480053006500000600DA
:10081000D9CF03F0DACF04F09EAA11EF04F013EF62
:1008200004F0D7EF04F0AECF59F000019F51016EF4
:10083000026A0B0E011807E1080E0218D8A423EF74
:1008400004F025EF04F0D6EF04F0310E5918D8A4C7
:100850002CEF04F02EEF04F032EF04F0000E796F6D
:10086000010E786F320E5918D8A439EF04F03BEF1F
:1008700004F03FEF04F0000E796F020E786F330E34
:100880005918D8A446EF04F048EF04F04CEF04F0F8
:10089000000E796F030E786F340E5918D8A453EFF9
:1008A00004F055EF04F059EF04F0000E796F040ED8
:1008B000786F350E5918D8A460EF04F062EF04F099
:1008C00066EF04F0000E796F050E786F360E59183A
:1008D000D8A46DEF04F06FEF04F073EF04F0000E96
:1008E000796F060E786F370E5918D8A47AEF04F096
:1008F0007CEF04F080EF04F0000E796F070E786F44
:10090000380E5918D8A487EF04F089EF04F08DEF62
:1009100004F0000E796F080E786F390E5918D8A4BC
:1009200094EF04F096EF04F09AEF04F0000E796F64
:10093000090E786F470E5918D8B4A1EF04F0A3EF51
:1009400004F0ACEF04F0670E5918D8A4AAEF04F035
:10095000ACEF04F0AEEF04F0050E9E6F530E591885
:10096000D8B4B5EF04F0B7EF04F0C0EF04F0730EA5
:100970005918D8A4BEEF04F0C0EF04F0C2EF04F0A1
:10098000090E9E6F480E5918D8B4C9EF04F0CBEF8A
:1009900004F0D4EF04F0680E5918D8A4D2EF04F094
:1009A000D4EF04F0D6EF04F0070E9E6F9E9AF2A4E7
:1009B000DCEF04F0DEEF04F0F3EF05F0F294240E28
:1009C000D76E460ED66E00018E058F11D8A4EBEFC0
:1009D00004F0EDEF04F00BEF05F0822906E1832926
:1009E000D8A4F5EF04F0F7EF04F00BEF05F09C51FD
:1009F0009D11D8B4FEEF04F000EF05F001EF05F013
:100A0000CD809A519B11D8B408EF05F00AEF05F09C
:100A10000BEF05F0B1808E058F11D8A412EF05F011
:100A200014EF05F018EF05F0824B832B31EF05F042
:100A30008A058B11D8A41FEF05F021EF05F026EFF2
:100A400005F08207D8A0830731EF05F08C058D11E2
:100A5000D8A42DEF05F02FEF05F031EF05F0804B16
:100A6000812B83BF3DEF05F0835109E1130E825DB9
:100A7000D8A03DEF05F03FEF05F052EF05F08E05F1
:100A80008F11D8A446EF05F048EF05F052EF05F0BE
:100A9000000E8F6F000E8E6F000E8D6F010E8C6F2B
:100AA00095EF05F083BF5EEF05F0835109E1130E6A
:100AB000825DD8A05EEF05F060EF05F081EF05F0F4
:100AC0008C058D11D8A467EF05F069EF05F081EF73
:100AD00005F081BF75EF05F0815109E1140E805DCD
:100AE000D8A075EF05F077EF05F081EF05F0000E67
:100AF0008D6F000E8C6F000E8B6F010E8A6F95EF5D
:100B000005F083BF88EF05F086EF05F095EF05F05F
:100B10008A058B11D8A48FEF05F091EF05F095EFC2
:100B200005F0000E8B6F000E8A6F83BF9AEF05F001
:100B30009CEF05F0C4EF05F083BFAAEF05F08351E9
:100B400007E1140E825DD8B0A8EF05F0AAEF05F01A
:100B5000C4EF05F0D8908235D96E8335DA6E280E51
:100B6000D926010EDA22DECF57F0DDCF58F0D8902B
:100B70008235D96E8335DA6E000ED926010EDA225F
:100B8000DECF90F0DDCF91F088518911D8A4CBEF62
:100B900005F0CDEF05F0D1EF05F057C0CEFF58C0FE
:100BA000CFFF86518711D8A4D8EF05F0DAEF05F012
:100BB000DEEF05F090C0B2FF91C0B3FF860587114C
:100BC000D8A4E5EF05F0E7EF05F0F3EF05F08805B1
:100BD0008911D8A4EEEF05F0F0EF05F0F3EF05F082
:100BE000D59ECD90B1909EA0F8EF05F0FAEF05F0FC
:100BF00040EF06F09E9057C0CEFF58C0CFFF8CA0AC
:100C000004EF06F006EF06F017EF06F000019C5126
:100C1000965D9D519759D8B010EF06F012EF06F08F
:100C200017EF06F0964B972B8C9040EF06F08CB0A8
:100C30001CEF06F01EEF06F02DEF06F000019C51B0
:100C4000965D9D519759D8B028EF06F02AEF06F02F
:100C50002DEF06F08C8040EF06F000019C51965D70
:100C60009D519759D8A037EF06F039EF06F040EFC5
:100C700006F0000E896F010E886FCD9040EF06F0F0
:100C8000A1A245EF06F047EF06F08DEF06F0A19226
:100C900090C0B2FF91C0B3FF8CA251EF06F053EFAA
:100CA00006F064EF06F000019A51945D9B5195594E
:100CB000D8B05DEF06F05FEF06F064EF06F0944BFE
:100CC000952B8C928DEF06F08CB269EF06F06BEFEE
:100CD00006F07AEF06F000019A51945D9B51955908
:100CE000D8B075EF06F077EF06F07AEF06F08C8259
:100CF0008DEF06F000019A51945D9B519559D8A053
:100D000084EF06F086EF06F08DEF06F0000E876F99
:100D1000010E866FB1908DEF06F004C0DAFF03C0BC
:100D2000D9FF5A9211000850800B116E0850082408
:100D3000136E07AE9EEF06F0A0EF06F0A1EF06F0EF
:100D400013801350D8B4A7EF06F0A9EF06F0BEEF5A
:100D500006F01328D8A4AFEF06F0B1EF06F0B9EF14
:100D600006F0000E056E000E066E000E076E000EF9
:100D7000086E078E000E086EC6EF06F0000E056EB8
:100D8000000E066E000E076E000E086E0C50800BF3
:100D9000126E11501218D8B4D0EF06F0D2EF06F050
:100DA000D3EF06F0118C0C500C24126E0BAEDBEF5F
:100DB00006F0DDEF06F0DEEF06F012801250D8B438
:100DC000E4EF06F0E6EF06F0FBEF06F01228D8A4F9
:100DD000ECEF06F0EEEF06F0F6EF06F0000E096E0F
:100DE000000E0A6E000E0B6E000E0C6E0B8E000EC7
:100DF0000C6E03EF07F0000E096E000E0A6E000E77
:100E00000B6E000E0C6E1350125CD8B00AEF07F098
:100E10000CEF07F033EF07F011AC11EF07F013EF11
:100E200007F015EF07F0800E111A13C014F012C06E
:100E300013F014C012F005C014F009C005F014C07E
:100E400009F006C014F00AC006F014C00AF007C08A
:100E500014F00BC007F014C00BF008C014F00CC065
:100E600008F014C00CF0000E146E135012C00DF0F8
:100E70000E6A0D5E000E0E5A0EBE48EF07F00E50C1
:100E800009E11A0E0D5CD8A048EF07F04AEF07F011
:100E900081EF07F00550061007100810D8A453EF93
:100EA00007F056EF07F0010E57EF07F0000E146E33
:100EB000000E056E000E066E000E076E000E086E28
:100EC00012C013F08AEF07F014A069EF07F06BEF80
:100ED00007F071EF07F0D89014300109146E73EF2A
:100EE00007F0D890143205A078EF07F07AEF07F0FA
:100EF0007BEF07F0148E08340832073206320532D1
:100F0000132A1250135CD8A088EF07F08AEF07F07D
:100F100064EF07F011BC8FEF07F091EF07F0D1EF0E
:100F200007F01350D8A497EF07F099EF07F0A3EF5D
:100F300007F0000E056E000E066E000E076E000E26
:100F4000086EF2EF08F0095005260A5006220B50F1
:100F500007220C50082208A0B0EF07F0B2EF07F00C
:100F60005EEF08F014A0B7EF07F0B9EF07F0BFEF9E
:100F700007F0D89014300109146EC1EF07F0D89033
:100F8000143205A0C6EF07F0C8EF07F0C9EF07F06D
:100F9000148E08340832073206320532132A5EEF07
:100FA00008F00950055C0A5006580B5007580850C5
:100FB000800A0D6E0C50800A0D58D8B0E2EF07F091
:100FC000E4EF07F00FEF08F00550095C0D6E0650D6
:100FD0000A580E6E07500B580F6E08500C58106EC2
:100FE000FF0E0D24056EFF0E0E20066EFF0E0F2065
:100FF000076EFF0E1020086E800E111A146C14502C
:10100000D8A405EF08F007EF08F017EF08F0010E7D
:101010000526000E06220722082217EF08F00950C5
:10102000055E0A50065A0B50075A0C50085A0550D4
:10103000061007100810D8A420EF08F022EF08F0DF
:1010400057EF08F01450D8A428EF08F02AEF08F062
:1010500057EF08F0000E056E000E066E000E076ECC
:10106000000E086EF2EF08F0D89005360636073607
:10107000083614AE3EEF08F040EF08F041EF08F0FC
:10108000058014A046EF08F048EF08F04CEF08F098
:10109000D88014364EEF08F0D89014361350D8B4D8
:1010A00054EF08F056EF08F057EF08F0130607AEBC
:1010B0005CEF08F05EEF08F034EF08F0000E126EFF
:1010C00014AE65EF08F067EF08F07FEF08F014C08A
:1010D0000DF07F0E0D16D8B470EF08F072EF08F027
:1010E00076EF08F0010E126E7FEF08F005A07BEF9F
:1010F00008F07DEF08F07FEF08F072EF08F0125073
:10110000D8B485EF08F087EF08F0B2EF08F0010ED1
:101110000526000E06220722082208A092EF08F0FA
:1011200094EF08F0B2EF08F005C00DF006C00EF025
:1011300007C00FF008C010F0103410320F320E321A
:101140000D320DC005F00EC006F00FC007F010C044
:1011500008F01328D8B4AFEF08F0B1EF08F0B2EF01
:1011600008F0132A1328D8B4B8EF08F0BAEF08F043
:10117000C2EF08F01350D8A4C0EF08F0C2EF08F097
:10118000D4EF08F0000E056E000E066E000E076E1E
:10119000000E086E1350D8A4D0EF08F0D2EF08F07C
:1011A000D4EF08F0000E116E13A0D9EF08F0DBEFBA
:1011B00008F0DEEF08F0078EDFEF08F0079ED8900A
:1011C0001330086E11AEE7EF08F0E9EF08F0EAEF30
:1011D00008F0088E05C005F006C006F007C007F04D
:1011E00008C008F012001650800B1F6E165016240F
:1011F000256E15AEFEEF08F000EF09F001EF09F0E3
:1012000025802550D8B407EF09F009EF09F01CEF4D
:1012100009F02528D8A40FEF09F011EF09F019EF14
:1012200009F0000E136E000E146E000E156E000E07
:10123000166E158E24EF09F0000E136E000E146E5C
:10124000000E156E000E166E1A50800B1F1A1A50E3
:101250001A24206E19AE2FEF09F031EF09F032EFAA
:1012600009F020802050D8B438EF09F03AEF09F0A7
:101270004DEF09F02028D8A440EF09F042EF09F023
:101280004AEF09F0000E176E000E186E000E196E70
:10129000000E1A6E198E55EF09F0000E176E000E33
:1012A000186E000E196E000E1A6E2050D8B45BEF47
:1012B00009F05DEF09F065EF09F02550D8A463EF60
:1012C00009F065EF09F06FEF09F0000E136E000EE4
:1012D000146E000E156E000E166E07EF0BF019500F
:1012E0001302F3CF2AF0F4CF2BF02A50216E226A9A
:1012F000236A246A2B50266E276A286A296A1850A6
:101300001402F3CF2AF0F4CF2BF02A502126000E3E
:101310002222232224222B502626000E2722282296
:10132000292217501502F3CF2AF0F4CF2BF02A50C0
:101330002126000E2222232224222B502626000EB4
:1013400027222822292223C024F022C023F021C0F2
:1013500022F0216A17501402F3CF2AF0F4CF2BF0B9
:101360002A5021262B502222000E2322000E242256
:1013700018501302F3CF2AF0F4CF2BF02A50212675
:101380002B502222000E2322000E242223C024F000
:1013900022C023F021C022F0216A17501302F3CF9C
:1013A0002AF0F4CF2BF02A5021262B502222000EB7
:1013B0002322000E242219501402F3CF2AF0F4CF76
:1013C0002BF02A5026262B502722000E2822000E12
:1013D000292218501502F3CF2AF0F4CF2BF02A500F
:1013E00026262B502722000E2822000E29221950D3
:1013F0001502F3CF2AF0F4CF2BF02A501B6E2B509E
:101400001C6E1D6A1E6A1DC01EF01CC01DF01BC094
:101410001CF01B6A1B5026261C5027221D50282218
:101420001E50292221C01BF022C01CF023C01DF039
:1014300024C01EF0190E22EF0AF0D8901E321D3281
:101440001C321B32E82E1DEF0AF01B5026261C50C2
:1014500027221D5028221E50292223C024F022C0FA
:1014600023F021C022F0216A205025C01BF01C6A05
:101470001B26000E1C22820E1B242A6EFF0E1C202F
:101480002B6E58EF0AF0D8902636273628362936A4
:1014900024AE4DEF0AF04FEF0AF050EF0AF026802D
:1014A000D89021362236233624362A06D8A02B0699
:1014B00028AE5DEF0AF05FEF0AF043EF0AF0000E8E
:1014C000206E24AE66EF0AF068EF0AF08CEF0AF0A7
:1014D000FF0E21141B6EFF0E22141C6EFF0E231430
:1014E0001D6E7F0E24141E6E1B501C101D101E102E
:1014F000D8B47DEF0AF07FEF0AF083EF0AF0010E17
:10150000206E8CEF0AF026A088EF0AF08AEF0AF02E
:101510008CEF0AF07FEF0AF02050D8B492EF0AF077
:1015200094EF0AF0B8EF0AF0010E2626000E2722EB
:101530002822292229A09FEF0AF0A1EF0AF0B8EF94
:101540000AF026C01BF027C01CF028C01DF029C0DF
:101550001EF01E341E321D321C321B321BC026F000
:101560001CC027F01DC028F01EC029F02A4A2B2AD3
:101570002BBEC3EF0AF02B5008E12A28D8A0C3EFF6
:101580000AF0C5EF0AF0CFEF0AF0000E266E000E4B
:10159000276E800E286E7F0E296EFDEF0AF02BBE9F
:1015A000DCEF0AF02B5006E12A04D8B0DAEF0AF09B
:1015B000DCEF0AF0E8EF0AF0000E266E000E276E50
:1015C000000E286E000E296E000E1F6EFDEF0AF051
:1015D0002AC025F0FF0E2616FF0E27167F0E2816AE
:1015E000000E291625A0F7EF0AF0F9EF0AF0FAEF3E
:1015F0000AF0288ED8902530296E1F50291226C057
:1016000013F027C014F028C015F029C016F01200FE
:10161000000176517711D8B410EF0BF012EF0BF0F8
:10162000CBEF0CF076057711D8A419EF0BF01BEF78
:101630000BF037EF0BF0BAC0DEF0BBC0DFF0E06BB1
:10164000E16BBCC0E2F0BDC0E3F0E46BE56B200EE3
:10165000E66F030EE76F000EE86F000EE96F000EF5
:10166000EB6F010EEA6F02EC0DF067EF0CF0020E6B
:1016700076197711D8A43FEF0BF041EF0BF05DEF37
:101680000BF0BEC0DEF0BFC0DFF0E06BE16BC0C0AE
:10169000E2F0C1C0E3F0E46BE56B200EE66F030EF1
:1016A000E76F000EE86F000EE96F000EEB6F010EA2
:1016B000EA6F02EC0DF067EF0CF0030E761977116C
:1016C000D8A465EF0BF067EF0BF083EF0BF0C2C00F
:1016D000DEF0C3C0DFF0E06BE16BC4C0E2F0C5C078
:1016E000E3F0E46BE56B200EE66F030EE76F000E90
:1016F000E86F000EE96F000EEB6F010EEA6F02EC6F
:101700000DF067EF0CF0040E76197711D8A48BEF6B
:101710000BF08DEF0BF0A9EF0BF0C6C0DEF0C7C0E9
:10172000DFF0E06BE16BC8C0E2F0C9C0E3F0E46B4E
:10173000E56B200EE66F030EE76F000EE86F000EFC
:10174000E96F000EEB6F010EEA6F02EC0DF067EF30
:101750000CF0050E76197711D8A4B1EF0BF0B3EFAA
:101760000BF0CFEF0BF0CAC0DEF0CBC0DFF0E06BC8
:10177000E16BCCC0E2F0CDC0E3F0E46BE56B200E92
:10178000E66F030EE76F000EE86F000EE96F000EC4
:10179000EB6F010EEA6F02EC0DF067EF0CF0060E36
:1017A00076197711D8A4D7EF0BF0D9EF0BF0F5EF3E
:1017B0000BF0CEC0DEF0CFC0DFF0E06BE16BD0C04D
:1017C000E2F0D1C0E3F0E46BE56B200EE66F030EB0
:1017D000E76F000EE86F000EE96F000EEB6F010E71
:1017E000EA6F02EC0DF067EF0CF0070E7619771137
:1017F000D8A4FDEF0BF0FFEF0BF01BEF0CF0D2C005
:10180000DEF0D3C0DFF0E06BE16BD4C0E2F0D5C016
:10181000E3F0E46BE56B200EE66F030EE76F000E5E
:10182000E86F000EE96F000EEB6F010EEA6F02EC3D
:101830000DF067EF0CF0080E76197711D8A423EF9E
:101840000CF025EF0CF041EF0CF0D6C0DEF0D7C065
:10185000DFF0E06BE16BD8C0E2F0D9C0E3F0E46BFD
:10186000E56B200EE66F030EE76F000EE86F000ECB
:10187000E96F000EEB6F010EEA6F02EC0DF067EFFF
:101880000CF0090E76197711D8A449EF0CF04BEF44
:101890000CF067EF0CF0DAC0DEF0DBC0DFF0E06BDD
:1018A000E16BDCC0E2F0DDC0E3F0E46BE56B200E41
:1018B000E66F030EE76F000EE86F000EE96F000E93
:1018C000EB6F010EEA6F02EC0DF067EF0CF0000E0B
:1018D0000001DE6F000EDF6F000EE06F000EE16FA3
:1018E000000EE26F000EE36F000EE46F000EE56F76
:1018F000DC0EE66F050EE76F000EE86F000EE96F75
:10190000000EEB6F000EEA6F02EC0DF0000E00010E
:10191000DE6F000EDF6F000EE06F000EE16FCE0E87
:10192000E26FFF0EE36FFF0EE46FFF0EE56F000E38
:10193000E66F000EE76F000EE86F000EE96F000E15
:10194000EB6F000EEA6F02EC0DF0000E0001DE6F8F
:10195000000EDF6F000EE06F000EE16F000EE26F11
:10196000000EE36F000EE46F000EE56F240EE66FCD
:10197000FA0EE76FFF0EE86FFF0EE96F000EEB6FD8
:10198000000EEA6F02EC0DF0000E0001776F000E02
:10199000766FFEEF0CF0450E5FEC15F0520E5FEC2B
:1019A00015F0520E5FEC15F04F0E5FEC15F0520E75
:1019B0005FEC15F0200E5FEC15F0530E5FEC15F0A8
:1019C000410E5FEC15F0510E5FEC15F0550E5FEC1B
:1019D00015F0450E5FEC15F0200E5FEC15F0410E92
:1019E0005FEC15F04E0E5FEC15F0540E5FEC15F049
:1019F000450E5FEC15F0530E5FEC15F0650E00011F
:101A00009F6F12000001EA05EB11D8A40AEF0DF058
:101A10000CEF0DF089EF0DF07E51EC6F7F51ED6F03
:101A2000EE6BEF6BDE51EC5DDF51ED59E051EE599D
:101A3000EF51800AF06FE151800AF059D8B023EFDE
:101A40000DF025EF0DF02EEF0DF07E51DE5D9C6F59
:101A50007F51DF599D6F8C8435EF0DF0DE517E5D37
:101A60009C6FDF517F599D6F8C947C51EC6F7D5141
:101A7000ED6FEE6BEF6BE251EC5DE351ED59E4512C
:101A8000EE59EF51800AF06FE551800AF059D8B055
:101A90004CEF0DF04EEF0DF057EF0DF07C51E25D85
:101AA0009A6F7D51E3599B6F8C865EEF0DF0E2518A
:101AB0007C5D9A6FE3517D599B6F8C967A51EC6FE8
:101AC0007B51ED6FEE6BEF6BE651EC5DE751ED593D
:101AD000E851EE59EF51800AF06FE951800AF05950
:101AE000D8B075EF0DF077EF0DF080EF0DF07A5173
:101AF000E65D986F7B51E759996F8C88F2EF0DF096
:101B0000E6517A5D986FE7517B59996F8C98F2EFA7
:101B10000DF0E1BF96EF0DF0E151E011DF1108E1AA
:101B2000DE05D8A096EF0DF098EF0DF09FEF0DF0C9
:101B3000DEC09CF0DFC09DF08C84ACEF0DF0DEC009
:101B4000ECF0DFC0EDF0EC1FED1FEC4BED2BECC02B
:101B50009CF0EDC09DF08C94E5BFB9EF0DF0E55120
:101B6000E411E31108E1E205D8A0B9EF0DF0BBEFF5
:101B70000DF0C2EF0DF0E2C09AF0E3C09BF08C864E
:101B8000CFEF0DF0E2C0ECF0E3C0EDF0EC1FED1F85
:101B9000EC4BED2BECC09AF0EDC09BF08C96E9BFBE
:101BA000DCEF0DF0E951E811E71108E1E605D8A0F6
:101BB000DCEF0DF0DEEF0DF0E5EF0DF0E6C098F094
:101BC000E7C099F08C88F2EF0DF0E6C0ECF0E7C0CA
:101BD000EDF0EC1FED1FEC4BED2BECC098F0EDC0E1
:101BE00099F08C989C519D11D8B4F9EF0DF0FBEF52
:101BF0000DF04EEF0EF0000E976F000E966F000E78
:101C0000176E000E186E000E196E3F0E1A6E9CC0F5
:101C100005F09DC006F0076A086A000E0BEC12F092
:101C200005C013F006C014F007C015F008C016F088
:101C3000F3EC08F013C02CF014C02DF015C02EF0FA
:101C400016C02FF0F7C030F0F8C031F0F9C032F014
:101C5000FAC033F0D9EC0EF02CC0ACF02DC0ADF0D2
:101C60002EC0AEF02FC0AFF0ACC013F0ADC014F07A
:101C7000AEC015F0AFC016F0CD0E176ECC0E186EBC
:101C80004C0E196E3D0E1A6EF3EC08F013C068F09E
:101C900014C069F015C06AF016C06BF000019A51CB
:101CA0009B11D8B456EF0EF058EF0EF0ABEF0EF0DC
:101CB000000E956F000E946F000E176E000E186EDA
:101CC000000E196E3F0E1A6E9AC005F09BC006F00A
:101CD000076A086A000E0BEC12F005C013F006C08C
:101CE00014F007C015F008C016F0F3EC08F013C0AC
:101CF0002CF014C02DF015C02EF016C02FF0F7C038
:101D000030F0F8C031F0F9C032F0FAC033F0D9EC5D
:101D10000EF02CC0A8F02DC0A9F02EC0AAF02FC044
:101D2000ABF0A8C013F0A9C014F0AAC015F0ABC066
:101D300016F0CD0E176ECC0E186E4C0E196E3D0EB1
:101D40001A6EF3EC08F013C064F014C065F015C00F
:101D500066F016C067F000019C519D11D8A4B3EF46
:101D60000EF0B5EF0EF0BEEF0EF09A519B11D8B405
:101D7000BCEF0EF0BEEF0EF0D8EF0EF08269836973
:101D8000000E816F000E806F000E8F6F010E8E6F40
:101D9000000E8B6F000E8A6F000E8D6F000E8C6F21
:101DA000A6EC10F0D58EF294240ED76E460ED66EA9
:101DB00012002F50800B3C6E2F502F24436E2EAEFE
:101DC000E4EF0EF0E6EF0EF0E7EF0EF04380435045
:101DD000D8B4EDEF0EF0EFEF0EF004EF0FF0432864
:101DE000D8A4F5EF0EF0F7EF0EF0FFEF0EF0000EB7
:101DF0002C6E000E2D6E000E2E6E000E2F6E2E8E8F
:101E0000000E2F6E0CEF0FF0000E2C6E000E2D6EDC
:101E1000000E2E6E000E2F6E3350800B3C1A335086
:101E20003324446E32AE17EF0FF019EF0FF01AEFB4
:101E30000FF044804450D8B420EF0FF022EF0FF0A1
:101E400037EF0FF04428D8A428EF0FF02AEF0FF057
:101E500032EF0FF0000E306E000E316E000E326E5B
:101E6000000E336E328E000E336E3FEF0FF0000E19
:101E7000306E000E316E000E326E000E336E30503A
:101E8000311032103310D8A448EF0FF04AEF0FF0A2
:101E900062EF0FF0000E2C6E000E2D6E000E2E6EF7
:101EA000000E2F6E800E2E127F0E2F123C502F121E
:101EB0002CC02CF02DC02DF02EC02EF02FC02FF0F6
:101EC000A5EF10F04350D8A468EF0FF06AEF0FF0C1
:101ED00074EF0FF0000E2C6E000E2D6E000E2E6EA5
:101EE000000E2F6EA5EF10F0445043C034F0356A59
:101EF000345E000E355A7F0E34243D6E000E3520C0
:101F00003E6E2CC038F02DC039F02EC03AF02FC0F4
:101F10003BF0000E2C6E000E2D6E000E2E6E000E8D
:101F20002F6E000E3F6E000E406E000E416E000ED2
:101F3000426E000E446ED5EF0FF04450D8B4A3EFBC
:101F40000FF0A5EF0FF0BCEF0FF0D8903836393610
:101F50003A363B36D8902C362D362E362F3642AEBA
:101F6000B4EF0FF0B6EF0FF0B7EF0FF02C80D89072
:101F70003F364036413642363050385C3150395861
:101F800032503A5833503B58D8A0C9EF0FF0CBEF3E
:101F90000FF0D4EF0FF0428C3050385E3150395A88
:101FA00032503A5A33503B5A442A190E4464DBEFFC
:101FB0000FF0DDEF0FF09DEF0FF0385039103A10B1
:101FC0003B10D8B4E6EF0FF0E8EF0FF000EF10F0A1
:101FD0003F8000EF10F0D8902C362D362E362F365D
:101FE00042AEF5EF0FF0F7EF0FF0F8EF0FF02C80A7
:101FF000D8903F364036413642363D06D8A03E06A0
:102000002EAE05EF10F007EF10F0EBEF0FF0000E23
:10201000446E42AE0EEF10F010EF10F034EF10F0FF
:10202000FF0E3F14346EFF0E4014356EFF0E411448
:10203000366E7F0E4214376E34503510361037101E
:10204000D8B425EF10F027EF10F02BEF10F0010EB1
:10205000446E34EF10F02CA030EF10F032EF10F09F
:1020600034EF10F027EF10F04450D8B43AEF10F0EE
:102070003CEF10F060EF10F0010E2C26000E2D2228
:102080002E222F222FA047EF10F049EF10F060EF23
:1020900010F02CC034F02DC035F02EC036F02FC01B
:1020A00037F03734373236323532343234C02CF0F0
:1020B00035C02DF036C02EF037C02FF03D4A3E2AF5
:1020C0003EBE6BEF10F03E5008E13D28D8A06BEF0C
:1020D00010F06DEF10F078EF10F0000E3E6E3D68DE
:1020E000000E2C6E000E2D6E000E2E6E000E2F6E4A
:1020F0003EBE85EF10F03E5006E13D04D8B083EFC0
:1021000010F085EF10F093EF10F0000E3E6E000E11
:102110003D6E000E2C6E000E2D6E000E2E6E000E0B
:102120002F6E000E3C6E3DC043F043A09AEF10F0BE
:102130009CEF10F09FEF10F02E8EA0EF10F02E9E6F
:10214000D89043302F6E56EF0FF01200000E0001B2
:10215000DD6F010EDC6FDCC005F0DDC006F0000EA7
:1021600006BEFF0E076E086E010E0BEC12F005C0E6
:1021700013F006C014F007C015F008C016F068C0D0
:1021800017F069C018F06AC019F06BC01AF0F3ECD0
:1021900008F013C0A4F014C0A5F015C0A6F016C036
:1021A000A7F0DCC005F0DDC006F0000E06BEFF0E95
:1021B000076E086E010E0BEC12F005C013F006C09E
:1021C00014F007C015F008C016F064C017F065C021
:1021D00018F066C019F067C01AF0F3EC08F013C0ED
:1021E000A0F014C0A1F015C0A2F016C0A3F0000E1C
:1021F000056E000E066E000E076E000E086EA4C07F
:1022000009F0A5C00AF0A6C00BF0A7C00CF02EEC98
:1022100014F0D8B00EEF11F010EF11F078EF11F0CC
:10222000000E2C6E000E2D6E000E2E6E3F0E2F6EC9
:10223000A4C030F0A5C031F0A6C032F0A7C033F082
:10224000D9EC0EF02CC070F02DC071F02EC072F0E1
:102250002FC073F0000E306E000E316E800E326EA5
:10226000400E336E000E176E240E186EF40E196EAB
:10227000490E1A6E70C013F071C014F072C015F0E0
:1022800073C016F0F3EC08F013C02CF014C02DF05E
:1022900015C02EF016C02FF0D9EC0EF02CC049F06E
:1022A0002DC04AF02EC04BF02FC04CF0000E456EF2
:1022B000000E466E800E476E470E486E26EC15F0F7
:1022C00045C04DF046C04EF047C04FF048C050F0FA
:1022D000ABEC13F0D8900001DC35D96EDD35DA6E49
:1022E000260ED926010EDA224DC0DEFF4EC0DDFFDC
:1022F000000E056E000E066E000E076E000E086ED4
:10230000A0C009F0A1C00AF0A2C00BF0A3C00CF05D
:102310002EEC14F0D8B08FEF11F091EF11F0F9EF2F
:1023200011F0000E2C6E000E2D6E000E2E6E3F0E64
:102330002F6EA0C030F0A1C031F0A2C032F0A3C017
:1023400033F0D9EC0EF02CC06CF02DC06DF02EC027
:102350006EF02FC06FF0000E306E000E316E800EEA
:10236000326E400E336E000E176E240E186EF40E91
:10237000196E490E1A6E6CC013F06DC014F06EC069
:1023800015F06FC016F0F3EC08F013C02CF014C079
:102390002DF015C02EF016C02FF0D9EC0EF02CC089
:1023A00049F02DC04AF02EC04BF02FC04CF0000E6B
:1023B000456E000E466E800E476E470E486E26EC48
:1023C00015F045C04DF046C04EF047C04FF048C034
:1023D00050F0ABEC13F0D8900001DC35D96EDD3550
:1023E000DA6EFE0ED926000EDA224DC0DEFF4EC098
:1023F000DDFF0001DC4BDD2BDDBF08EF12F0DD510E
:1024000009E1150EDC5DD8A008EF12F00AEF12F01A
:10241000ABEF10F012000D6E0D50D8B412EF12F0A9
:1024200014EF12F036EF12F008BE1BEF12F019EFA6
:1024300012F036EF12F005C009F006C00AF007C02E
:102440000BF008C00CF0091E0A1E0B1E0C1E092AF8
:10245000000E0A220B220C2209C00FF00AC010F055
:102460000BC011F00CC012F03EEF12F005C00FF0DF
:1024700006C010F007C011F008C012F00550061099
:1024800007100810D8A447EF12F049EF12F053EFED
:1024900012F0000E056E000E066E000E076E000EA6
:1024A000086EE4EF12F0960E0E6E5DEF12F00E2A3B
:1024B000D8901232113210320F32000E0F14096E02
:1024C000000E10140A6E000E11140B6EFE0E121484
:1024D0000C6E09500A100B100C10D8A472EF12F0F9
:1024E00074EF12F057EF12F082EF12F00E2A010E85
:1024F0000F26000E102211221222D8901232113211
:1025000010320F32000E0F14096E000E10140A6EF6
:10251000000E11140B6EFF0E12140C6E09500A10EF
:102520000B100C10D8A497EF12F099EF12F076EF81
:1025300012F0A1EF12F00E06D8900F3610361136B9
:10254000123611BEA6EF12F0A8EF12F0B0EF12F0A3
:10255000020E0E60AEEF12F0B0EF12F09BEF12F031
:102560000EB0B5EF12F0B7EF12F0B8EF12F0119E07
:10257000D8900E320EC009F00A6A0B6A0C6A09C0C4
:102580000CF00B6A0A6A096A09500F120A501012FD
:102590000B5011120C5012120D50D8B4D2EF12F091
:1025A000D4EF12F0DCEF12F008BEDBEF12F0D9EF3F
:1025B00012F0DCEF12F0128E0FC005F010C006F022
:1025C00011C007F012C008F01200000E0001F76FF2
:1025D000000EF86F900EF96F400EFA6FF7C02CF0F6
:1025E000F8C02DF0F9C02EF0FAC02FF0000E306EBA
:1025F000000E316EA00E326E410E336ED9EC0EF02D
:102600002CC0F3F02DC0F4F02EC0F5F02FC0F6F082
:10261000D4C0DEF0D5C0DFF00001E06BE16BD6C0C6
:10262000E2F0D7C0E3F0E46BE56B000EE66F000E5E
:10263000E76F000EE86F000EE96F000EEB6F000E03
:10264000EA6F02EC0DF0C00E956E000E8C6EF19EDE
:102650009368F2949E90A192F28A9D80A082700E5F
:10266000D36E020ED56ED59E240ED76E460ED66E54
:10267000A00ECD6ECD90A00EB16EB190900EAB6E4F
:10268000200EAC6E000EB86E0C0EAF6E9F8A9E9A36
:102690009D8AF28CF28EB0EC14F000019E51F16F25
:1026A000F26B070EF11907E1080EF219D8A45BEFDF
:1026B00013F05DEF13F071EF13F06F0E5FEC15F098
:1026C000000176517711D8B468EF13F06AEF13F078
:1026D0006CEF13F008EC0BF0B0EC14F0650E5FEC4F
:1026E00015F000019E51F16FF26B050EF11907E133
:1026F000080EF219D8A47FEF13F081EF13F08CEFDE
:1027000013F06F0E5FEC15F008EC0BF0030E0001F8
:102710009E6F650E5FEC15F000019E51F16FF26B3C
:10272000090EF11907E1080EF219D8A49AEF13F077
:102730009CEF13F04DEF13F06F0E5FEC15F008EC0B
:102740000BF0030E00019E6F650E5FEC15F04DEF70
:1027500013F007EF00F04F345034566E5650D8A4A3
:10276000B4EF13F0B6EF13F0C0EF13F0000E4D6EA0
:10277000000E4E6E000E4F6E000E506E2DEF14F0D8
:102780004DC051F04EC052F04FC053F050C054F005
:10279000200ED0EF13F0D8905432533252325132CF
:1027A000E82ECBEF13F05150556E4F8EFF0E4D16A5
:1027B000FF0E4E16FF0E4F16000E5016960E565E6A
:1027C00056BEE7EF13F0E5EF13F0FDEF13F05650B0
:1027D000800A970FD8B0EFEF13F0F1EF13F0F3EF9B
:1027E00013F0B6EF13F0D89050324F324E324D32D4
:1027F000563EF3EF13F015EF14F01F0E566403EF7F
:1028000014F005EF14F00DEF14F0B6EF13F0D890BC
:102810004D364E364F36503656065650D8A413EF26
:1028200014F015EF14F007EF14F05550D8B41BEF67
:1028300014F01DEF14F025EF14F0501E4F1E4E1E25
:102840004D6C000E4E224F2250224DC04DF04EC016
:102850004EF04FC04FF050C050F01200000E051463
:102860000D6E000E06140E6E800E07140F6E7F0E96
:102870000814106E0D500E100F101010D8A443EF56
:1028800014F045EF14F04DEF14F0000E056E000E3D
:10289000066E000E076E000E086E000E09140D6E17
:1028A000000E0A140E6E800E0B140F6E7F0E0C14A9
:1028B000106E0D500E100F101010D8A462EF14F00F
:1028C00064EF14F06CEF14F0000E096E000E0A6E47
:1028D000000E0B6E000E0C6E08AE71EF14F073EF6D
:1028E00014F07CEF14F0056C061ED8B0062A071E03
:1028F000D8B0072A800E08560CAE81EF14F083EF93
:1029000014F08CEF14F0096C0A1ED8B00A2A0B1EC2
:10291000D8B00B2A800E0C56000E051A000E061AAF
:10292000000E071A800E081A000E091A000E0A1A65
:10293000000E0B1A800E0C1A0950055C0A5006583E
:102940000B5007580C500858D8B0A9EF14F0ABEF53
:1029500014F0AEEF14F0D890AFEF14F0D88012005E
:102960008C948C968C98BFEF14F08C8AA00E00D0BB
:10297000E82EFDD78C9AA00E00D0E82EFDD781A4BA
:10298000C4EF14F0C6EF14F0B5EF14F0E2EF14F05A
:1029900081B0CDEF14F0CFEF14F0D0EF14F08C80B5
:1029A00081B2D5EF14F0D7EF14F0D8EF14F08C8289
:1029B000A00E00D0E82EFDD78C908C92A00E00D0F7
:1029C000E82EFDD781A0E7EF14F0E9EF14F0C8EF8F
:1029D00014F081A2EEEF14F0F0EF14F0C8EF14F051
:1029E000000E00017F6F000E7E6F000E7D6F000EE7
:1029F0007C6F000E7B6F000E7A6F1200920EF66EE7
:102A00002A0EF76E000EF86E00EEB0F010EE2CF00D
:102A10000900F5CFEEFFE550E150FAE101EE00F0DC
:102A2000500EEE6AE806FDE100EE60F0500EEE6A30
:102A3000E806FDE1596A586A576A5A905A92000EA0
:102A4000F86E080EF76E0001E5EF12F0000E491A5D
:102A5000000E4A1A000E4B1A800E4C1A45C005F0A3
:102A600046C006F047C007F048C008F049C009F06A
:102A70004AC00AF04BC00BF04CC00CF093EC06F0CF
:102A800005C045F006C046F007C047F008C048F052
:102A90001200000000000000F03CFC21F03CC044AB
:102AA000F03C0000502DFC21502DC044502D000062
:102AB000B01DFC21B01DC044B01DFC212C4C056E86
:102AC000ACA265EF15F067EF15F060EF15F005C0EB
:042AD000ADFF120044
:020000040020DA
:08000000FFFFFFFFFFFFFFFF00
:020000040030CA
:0E00000000091F1EFF8181FF0FC00FE00F409F
:00000001FF
